:020000040800F2
:10000000005000207D460008DD110008DF110008C7
:10001000E1110008E3110008E511000800000000EC
:100020000000000000000000000000002127000880
:10003000E711000800000000C1270008052800089B
:10004000C5460008C5460008C5460008C546000864
:10005000C5460008C5460008C5460008C546000854
:10006000C5460008C5460008C5460008C546000844
:10007000C5460008C5460008C5460008C546000834
:10008000C5460008C5460008C5460008C546000824
:10009000C5460008C5460008C5460008C546000814
:1000A000C5460008C5460008C5460008C546000804
:1000B000E9110008C5460008C5460008C546000805
:1000C000C5460008C5460008C5460008C5460008E4
:1000D000C5460008C5460008C5460008C5460008D4
:1000E000C5460008C5460008C546000800000000D7
:1000F0000000000000000000000000000000000000
:0C01000000000000000000005FF808F1A3
:1001100010B5054C237833B9044B13B10448AFF341
:1001200000800123237010BDC009002000000000E2
:1001300038BA000808B5034B1BB103490348AFF3B5
:10014000008008BD00000000C409002038BA000883
:10015000844641EA000313F0030349D1403A23D314
:100160000B6803604B6843608B688360CB68C36037
:100170000B6903614B6943618B698361CB69C3611F
:100180000B6A03624B6A43628B6A8362CB6AC36207
:100190000B6B03634B6B43638B6B8363CB6BC363EF
:1001A00040304031403ADBD230320BD30B68036031
:1001B0004B6843608B688360CB68C360103010313C
:1001C000103AF3D20C3205D351F8043B40F8043B0B
:1001D000043AF9D2043208D0D2071CBF11F8013B0F
:1001E00000F8013B01D30B8803806046704700BFD5
:1001F000082A13D38B07B1D010F00303AED0C3F19C
:100200000403D21ADB071CBF11F8013B00F8013BC5
:10021000A4D331F8023B20F8023B9FE7043AD9D33C
:10022000013A11F8013B00F8013BF9D20B78037059
:100230004B7843708B7883706046704781F0004143
:1002400002E000BF83F0004330B54FEA41044FEABB
:10025000430594EA050F08BF90EA020F1FBF54EA56
:10026000000C55EA020C7FEA645C7FEA655C00F0F2
:10027000E2804FEA5454D4EB5555B8BF6D420CDDC3
:100280002C4480EA020281EA030382EA000083EA46
:10029000010180EA020281EA0303362D88BF30BDE6
:1002A00011F0004F4FEA01314FF4801C4CEA11313C
:1002B00002D0404261EB410113F0004F4FEA03339B
:1002C0004CEA133302D0524263EB430394EA050F26
:1002D00000F0A780A4F10104D5F1200E0DDB02FA95
:1002E0000EFC22FA05F2801841F1000103FA0EF229
:1002F000801843FA05F359410EE0A5F120050EF1EF
:10030000200E012A03FA0EFC28BF4CF0020C43FA1F
:1003100005F3C01851EBE37101F0004507D54FF02C
:10032000000EDCF1000C7EEB00006EEB0101B1F57C
:10033000801F1BD3B1F5001F0CD349085FEA3000C2
:100340004FEA3C0C04F101044FEA445212F5800FCD
:1003500080F09A80BCF1004F08BF5FEA500C50F16A
:10036000000041EB045141EA050130BD5FEA4C0C4D
:10037000404141EB0101013C28BFB1F5801FE9D2AA
:1003800091F0000F04BF01460020B1FA81F308BFCD
:100390002033A3F10B03B3F120020CDA0C3208DD99
:1003A00002F1140CC2F10C0201FA0CF021FA02F174
:1003B0000CE002F11402D8BFC2F1200C01FA02F1E4
:1003C00020FA0CFCDCBF41EA0C019040E41AA2BF09
:1003D00001EB0451294330BD6FEA04041F3C1CDAD1
:1003E0000C340EDC04F11404C4F1200220FA04F0F1
:1003F00001FA02F340EA030021FA04F345EA03019B
:1004000030BDC4F10C04C4F1200220FA02F001FA5C
:1004100004F340EA0300294630BD21FA04F02946DE
:1004200030BD94F0000F83F4801306BF81F4801177
:100430000134013D4EE77FEA645C18BF7FEA655CEA
:1004400029D094EA050F08BF90EA020F05D054EABC
:10045000000C04BF1946104630BD91EA030F1EBFC1
:100460000021002030BD5FEA545C05D140004941C5
:1004700028BF41F0004130BD14F580043CBF01F5B8
:10048000801130BD01F0004545F0FE4141F470019E
:100490004FF0000030BD7FEA645C1ABF1946104679
:1004A0007FEA655C1CBF0B46024650EA013406BF7A
:1004B00052EA033591EA030F41F4002130BD00BF39
:1004C00090F0000F04BF0021704730B54FF48064F6
:1004D00004F132044FF000054FF0000150E700BF77
:1004E00090F0000F04BF0021704730B54FF48064D6
:1004F00004F1320410F0004548BF40424FF00001C3
:100500003EE700BF42004FEAE2014FEA31014FEA05
:1005100002701FBF12F07F4393F07F4F81F0605154
:10052000704732F07F4208BF704793F07F4F04BF9F
:1005300041F40021704730B54FF4607401F000457C
:1005400021F000411CE700BF50EA010208BF7047DC
:1005500030B54FF000050AE050EA010208BF7047CD
:1005600030B511F0004502D5404261EB41014FF436
:10057000806404F132045FEA915C3FF4D8AE4FF03E
:1005800003025FEADC0C18BF03325FEADC0C18BF21
:10059000033202EBDC02C2F1200300FA03FC20FA72
:1005A00002F001FA03FE40EA0E0021FA02F11444BF
:1005B000BDE600BF70B54FF0FF0C4CF4E06C1CEAD8
:1005C00011541DBF1CEA135594EA0C0F95EA0C0F49
:1005D00000F0DEF82C4481EA030621EA4C5123EABC
:1005E0004C5350EA013518BF52EA033541F48011EB
:1005F00043F4801338D0A0FB02CE4FF00005E1FB9E
:1006000002E506F00042E0FB03E54FF00006E1FBE7
:1006100003569CF0000F18BF4EF0010EA4F1FF042A
:10062000B6F5007F64F5407404D25FEA4E0E6D416A
:1006300046EB060642EAC62141EA55514FEAC5207B
:1006400040EA5E504FEACE2EB4F1FD0C88BFBCF5F7
:10065000E06F1ED8BEF1004F08BF5FEA500E50F1A8
:10066000000041EB045170BD06F0004646EA01016E
:1006700040EA020081EA0301B4EB5C04C2BFD4EBA0
:100680000C0541EA045170BD41F480114FF0000E99
:10069000013C00F3AB8014F1360FDEBF002001F007
:1006A000004170BDC4F10004203C35DA0C341BDC81
:1006B00004F11404C4F1200500FA05F320FA04F053
:1006C00001FA05F240EA020001F0004221F0004187
:1006D00010EBD37021FA04F642EB06015EEA430EFA
:1006E00008BF20EAD37070BDC4F10C04C4F120052A
:1006F00000FA04F320FA05F001FA04F240EA0200DD
:1007000001F0004110EBD37041F100015EEA430EAD
:1007100008BF20EAD37070BDC4F1200500FA05F2CD
:100720004EEA020E20FA04F301FA05F243EA02034C
:1007300021FA04F001F0004121FA04F220EA02005B
:1007400000EBD3705EEA430E08BF20EAD37070BDA1
:1007500094F0000F0FD101F00046400041EB010181
:1007600011F4801F08BF013CF7D041EA060195F063
:10077000000F18BF704703F00046520043EB03031D
:1007800013F4801F08BF013DF7D043EA060370470A
:1007900094EA0C0F0CEA135518BF95EA0C0F0CD015
:1007A00050EA410618BF52EA4306D1D181EA03015B
:1007B00001F000414FF0000070BD50EA410606BF55
:1007C0001046194652EA430619D094EA0C0F02D19A
:1007D00050EA013613D195EA0C0F05D152EA0336DF
:1007E0001CBF104619460AD181EA030101F00041FD
:1007F00041F0FE4141F470014FF0000070BD41F046
:10080000FE4141F4780170BD70B54FF0FF0C4CF41F
:10081000E06C1CEA11541DBF1CEA135594EA0C0F3E
:1008200095EA0C0F00F0A7F8A4EB050481EA030E8B
:1008300052EA03354FEA013100F088804FEA033372
:100840004FF0805545EA131343EA12634FEA022240
:1008500045EA111545EA10654FEA00260EF0004101
:100860009D4208BF964244F1FD0404F5407402D253
:100870005B084FEA3202B61A65EB03055B084FEAE4
:1008800032024FF480104FF4002CB6EB020E75EBE1
:10089000030E22BFB61A754640EA0C005B084FEA09
:1008A0003202B6EB020E75EB030E22BFB61A754686
:1008B00040EA5C005B084FEA3202B6EB020E75EBD1
:1008C000030E22BFB61A754640EA9C005B084FEA49
:1008D0003202B6EB020E75EB030E22BFB61A754656
:1008E00040EADC0055EA060E18D04FEA051545EA45
:1008F00016754FEA06164FEAC30343EA52734FEAEE
:10090000C2025FEA1C1CC0D111F4801F0BD141EA66
:1009100000014FF000004FF0004CB6E711F4801FCB
:1009200004BF01430020B4F1FD0C88BFBCF5E06FAB
:100930003FF6AFAEB5EB030C04BFB6EB020C5FEABB
:10094000500C50F1000041EB045170BD0EF0004E10
:100950004EEA113114EB5C04C2BFD4EB0C0541EA42
:10096000045170BD41F480114FF0000E013C90E63F
:1009700045EA060E8DE60CEA135594EA0C0F08BF03
:1009800095EA0C0F3FF43BAF94EA0C0F0AD150EA02
:1009900001347FF434AF95EA0C0F7FF425AF104695
:1009A00019462CE795EA0C0F06D152EA03353FF4BD
:1009B000FDAE1046194622E750EA410618BF52EA3A
:1009C00043067FF4C5AE50EA41047FF40DAF52EA0E
:1009D00043057FF4EBAE12E74FF0FF3C06E000BFAB
:1009E0004FF0010C02E000BF4FF0010C4DF804CDB8
:1009F0004FEA410C7FEA6C5C4FEA430C18BF7FEA78
:100A00006C5C1BD001B050EA410C0CBF52EA430CA5
:100A100091EA030F02BF90EA020F0020704710F125
:100A2000000F91EA030F58BF994208BF90422CBFB4
:100A3000D8176FEAE37040F0010070474FEA410CAD
:100A40007FEA6C5C02D150EA013C07D14FEA430CCB
:100A50007FEA6C5CD6D152EA033CD3D05DF8040B3C
:100A6000704700BF8446104662468C46194663466E
:100A700000E000BF01B5FFF7B7FF002848BF10F145
:100A8000000F01BD4DF808EDFFF7F4FF0CBF01208A
:100A900000205DF808FB00BF4DF808EDFFF7EAFF06
:100AA00034BF012000205DF808FB00BF4DF808EDC1
:100AB000FFF7E0FF94BF012000205DF808FB00BFB6
:100AC0004DF808EDFFF7CEFF94BF012000205DF840
:100AD00008FB00BF4DF808EDFFF7C4FF34BF01204D
:100AE00000205DF808FB00BF4FEA410C7FEA6C5C18
:100AF00002D150EA013C0AD14FEA430C7FEA6C5C18
:100B000002D152EA033C02D14FF0000070474FF08F
:100B1000010070474FEA410212F5001215D211D5BB
:100B20006FF47873B3EB625212D94FEAC12343F0EA
:100B3000004343EA505311F0004F23FA02F018BF6C
:100B4000404270474FF00000704750EA013005D135
:100B500011F0004008BF6FF0004070474FF00000F8
:100B6000704700BF53B94AB9002908BF00281CBF0D
:100B70004FF0FF314FF0FF3000F076B9ADF1080CC7
:100B80006DE904CE00F006F8DDF804E0DDE90223AB
:100B900004B070472DE9F047089E0D46044688468C
:100BA000002B4DD18A42944668D9B2FA82F252B1F2
:100BB00001FA02F3C2F1200120FA01F10CFA02FC61
:100BC00041EA030894404FEA1C41B8FBF1F71FFAD1
:100BD0008CFE01FB178807FB0EF0230C43EA084349
:100BE00098420AD91CEB030307F1FF3580F01E8100
:100BF000984240F21B81023F63441B1AB3FBF1F0A1
:100C000001FB103300FB0EFEA4B244EA0344A645E8
:100C10000AD91CEB040400F1FF3380F00981A645DA
:100C200040F20681644402380021A4EB0E0440EA3D
:100C300007401EB10023D440C6E90043BDE8F08759
:100C40008B4208D9002E00F0EE800021C6E9000595
:100C50000846BDE8F087B3FA83F100294AD1AB42D8
:100C600002D3824200F2FC80841A65EB0303012068
:100C70009846002EE2D0C6E90048DFE702B9FFDE61
:100C8000B2FA82F2002A40F09180A1EB0C0001211F
:100C90004FEA1C471FFA8CFEB0FBF7F307FB13006B
:100CA000250C45EA00450EFB03F0A84208D91CEBD1
:100CB000050503F1FF3802D2A84200F2CE80434678
:100CC0002D1AB5FBF7F007FB10550EFB00FEA4B282
:100CD00044EA0544A64508D91CEB040400F1FF359D
:100CE00002D2A64500F2B6802846A4EB0E0440EAE4
:100CF00003409EE7C1F120078B4022FA07FC4CEA33
:100D0000030C25FA07FA4FEA1C49BAFBF9F820FA56
:100D100007F309FB18AA8D401FFA8CFE1D4300FA49
:100D200001F308FB0EF02C0C44EA0A44A04202FA3C
:100D300001F20BD91CEB040408F1FF3A80F0888023
:100D4000A04240F28580A8F102086444241AB4FB52
:100D5000F9F009FB104400FB0EFEADB245EA044475
:100D6000A64508D91CEB040400F1FF356CD2A6455A
:100D70006AD90238644440EA0840A0FB0295A4EB1B
:100D80000E04AC42C846AE4656D353D0002E69D0AE
:100D9000B3EB080264EB0E0422FA01F304FA07F73E
:100DA0001F43CC40C6E90074002147E70CFA02FC5F
:100DB000C2F1200125FA01F34FEA1C4720FA01F1A4
:100DC00095400D43B3FBF7F107FB11331FFA8CFE7F
:100DD000280C40EA034001FB0EF3834204FA02F4BC
:100DE00008D91CEB000001F1FF382FD283422DD926
:100DF00002396044C01AB0FBF7F307FB1300ADB231
:100E000045EA004503FB0EF0A84208D91CEB050596
:100E100003F1FF3816D2A84214D9023B6544281AC0
:100E200043EA014138E73146304607E72F46E4E61A
:100E30001846F9E64B45A9D2B9EB020865EB0C0E52
:100E40000138A3E74346EAE7284694E74146D1E75D
:100E5000D0467BE76444023847E7023B65442FE70E
:100E6000084606E73146E9E6704700BF00B583B0A3
:100E700003F0E8F8642002F037FD03F0D1FB01F045
:100E80009FFA03F0C9FB154C1549204604F0CAF837
:100E9000144E154DB37900932B4614222821204679
:100EA00003F00CF9F37900932B4628223C212046CD
:100EB00003F004F90D4B14220021204604F072F8CF
:100EC0000B4B28220021204604F06CF8204603F04A
:100ED000A1FCC82001F05EFBCFE700BF0824002082
:100EE000DCBE0008A024002050CB000850BA000847
:100EF00058BA000800B583B001904FF6FF73012285
:100F000001A9034801F084F9019803B05DF804FBDE
:100F10002C0A002008B5044A0021044801F0C4FA54
:100F2000034B186008BD00BF70BA00086D0E0008C2
:100F3000DC0900202DE9F04389B0002404940594D5
:100F400006940794464B9A6942F010029A619A6996
:100F500002F010020092009A9A6942F020029A610F
:100F60009A6902F020020192019A9A6942F00802FD
:100F70009A619A6902F008020292029A9A6942F012
:100F800004029A619B6903F004030393039BDFF857
:100F9000D49001224FF40051484600F0D2FB324E6B
:100FA00022464FF20301304600F0CBFBDFF8BC8055
:100FB00022464FF4C851404600F0C3FB01224FF4D3
:100FC0004071304600F0BDFB4FF4005304930125FF
:100FD000059506950227079704A9484600F098FA58
:100FE00043F20303049305950694079704A930463A
:100FF00000F08EFA4FF4404304930595069407954C
:1010000004A9304600F084FA4FF4C85304930595C0
:101010000694079704A9404600F07AFA4FF400437B
:1010200004930594069404A9404600F071FA4FF425
:101030008073049305950695079704A9304600F040
:1010400067FA4FF4007304930595069503230793FD
:1010500004A9304600F05CFA09B0BDE8F08300BF97
:101060000010024000100140000C01400008014047
:1010700008B50368B3F1804F00D008BD00F0CAF98D
:10108000FBE772B6FEE700B591B02822002106A862
:1010900004F0F0FC0023019302930393049305935F
:1010A000012206924FF4803307930A9202220D9296
:1010B0000E934FF4E0130F9306A800F05FFB80B986
:1010C0000F23019302210291002303934FF48062C6
:1010D0000492059301A800F083FD20B911B05DF8DA
:1010E00004FBFFF7CEFFFFF7CCFF08B500F080F957
:1010F000FFF7C9FFFFF71EFF00F0F2F800F0D6F887
:1011000001F08AF9FFF706FF01F0A8F9FEE70000F9
:1011100000B583B0114B9A6942F001029A619A6955
:1011200002F001020092009ADA6942F08052DA611C
:10113000DB6903F080530193019B00220F216FF0C4
:10114000010000F09FF9064A536823F0E06343F082
:101150000073536003B05DF804FB00BF0010024051
:101160000000014000B589B0014600221C2000F0BB
:1011700089F91C2000F0BEF9154BDA6942F0010232
:10118000DA61DB6903F001030193019B02A903A863
:1011900000F002FE00F0E0FD43000E48A0FB032338
:1011A0009B0C013B0C484FF08042026040F2E7325A
:1011B000C260436000230361836000F03DFF18B10B
:1011C000012009B05DF804FB034800F005FEF8E7D4
:1011D0000010024083DE1B43E0090020FEE7FEE72B
:1011E000FEE7FEE7FEE7704708B5024800F02CFE78
:1011F00008BD00BFE00900200120704708B504F0D9
:101200000FFC162303604FF0FF3008BD08B54FF008
:10121000FF31FFF7F3FFFEE770B50C4616460025D9
:1012200006E0AFF30080214601F8010B01350C46C2
:10123000B542F6DB304670BD70B50C46164600254B
:1012400004E014F8010BFFF755FE0135B542F8DB59
:10125000304670BD08B503460B4A126842B10A4ACF
:10126000106803446A46934206D8074A136008BDD3
:10127000054A06491160F2E704F0D2FB0C23036033
:101280004FF0FF30F3E700BF280A0020F8280020C5
:101290004FF0FF3070474FF400534B600020704711
:1012A00001207047002070477047000008B50A48C9
:1012B0000A4B03604FF4E133436000238360C36053
:1012C00003610C2242618361C36100F071FF00B9C8
:1012D00008BDFFF7D6FEFBE72C0A002000380140CE
:1012E00008B50A480A4B03604FF4E133436000231A
:1012F0008360C36003610C2242618361C36100F0BB
:1013000057FF00B908BDFFF7BCFEFBE7740A0020D9
:101310000048004010B588B000230493059306935D
:10132000079303682D4A934204D02D4A93422BD051
:1013300008B010BD2B4B9A6942F480429A619A69B9
:1013400002F480420092009A9A6942F004029A6183
:101350009B6903F004030193019B4FF40073049312
:1013600002230593032307931F4C04A9204600F092
:10137000CFF84FF48063049300230593069304A9E8
:10138000204600F0C5F8D3E7164BDA6942F4802214
:10139000DA61DA6902F480220292029A9A6942F0D2
:1013A00008029A619B6903F008030393039B4FF4BF
:1013B0008063049302230593032307930B4C04A932
:1013C000204600F0A5F84FF4006304930023059332
:1013D000069304A9204600F09BF8A9E700380140D5
:1013E000004800400010024000080140000C01408D
:1013F00008B5074A136843F010031360032000F098
:101400002FF80F20FFF7AEFEFFF782FE002008BD89
:1014100000200240034A1168034B1B780B44136001
:10142000704700BFBC0A002004000020014B186870
:10143000704700BFBC0A002038B50446FFF7F6FF2E
:101440000546B4F1FF3F02D0044B1B781C44FFF764
:10145000EDFF401BA042FAD338BD00BF04000020BE
:10146000074AD36823F4E0631B041B0C000200F45A
:10147000E060034343F0BF6343F40033D36070473D
:1014800000ED00E000B5194BDB68C3F30223C3F1A4
:10149000070CBCF1040F28BF4FF0040C03F1040E3D
:1014A000BEF1060F18D9033B4FF0FF3E0EFA0CFCBD
:1014B00021EA0C0199400EFA03F322EA03031943CF
:1014C00000280BDB0901C9B200F1604000F5614062
:1014D00080F800135DF804FB0023E5E700F00F003F
:1014E0000901C9B2024B1954F4E700BF00ED00E056
:1014F00014ED00E0002807DB00F01F024009012383
:101500009340024A42F82030704700BF00E100E0FB
:1015100070B582B00024A446A6E0804DAA4210D047
:1015200007D97F4DAA420CD005F58035AA4208D0D4
:1015300013E0A5F58015AA4203D005F57025AA424F
:1015400007D18A68002A58D0012A51D04361082463
:1015500003E0A5F58015AA42F3D0BEF1FF0F4ED8E7
:101560000646BEF1FF0F4CD84FEA8C0233680F25B8
:10157000954023EA050304FA02F2134333604B68F3
:1015800013F0805F6ED0674B9A6942F001029A6156
:101590009B6903F001030193019B4FEA9C02951C98
:1015A000614B53F825600CF003039D000F23AB4003
:1015B00026EA03065D4B984229D003F580639842E2
:1015C00000F08E8003F58063984200F08B8003F575
:1015D0008063984219D004231AE0CC68BDE7CC6838
:1015E0000434BAE7CC680834B7E7CC680C34B4E705
:1015F00003610824B1E70024AFE70424ADE7061D2A
:10160000AFE7ACF108029200B0E7032300E000234B
:10161000AB4033430232444D45F822304B6813F45B
:10162000801F61D0424A936843EA0E0393604B687F
:1016300013F4001F5ED03E4AD36843EA0E03D36022
:101640004B6813F4003F5BD0394A536843EA0E03FA
:1016500053604B6813F4803F58D0354A136843EA0F
:101660000E0313600CF1010C0A6832FA0CF353D02C
:10167000012303FA0CF302EA030E33EA0202F1D16A
:101680004A68122A3FF649AF122A3FF666AF01A513
:1016900055F822F043150008DB150008E515000891
:1016A000F71500085B1500085B1500085B150008BE
:1016B0005B1500085B1500085B1500085B1500084A
:1016C0005B1500085B1500085B1500085B1500083A
:1016D0005B1500085B150008DF150008EB15000816
:1016E000012395E7022393E7114A936823EA0E0347
:1016F00093609CE70E4AD36823EA0E03D3609FE70A
:101700000B4A536823EA0E035360A2E7084A1368A2
:1017100023EA0E031360A5E702B070BD000022109B
:10172000000031100010024000000140000801409C
:10173000000401408368194201D001207047002055
:1017400070470AB1016170470904016170470000E8
:1017500082B0084B1B68084AA2FB03235B0A00FB0C
:1017600003F3019300BF019B5A1E0192002BF9D194
:1017700002B0704700000020D34D6210002800F036
:10178000F18170B582B00446036813F0010F2CD0CC
:10179000994B5B6803F00C03042B1DD0964B5B68E0
:1017A00003F00C03082B12D06368B3F5803F41D0DF
:1017B000002B55D103F1804303F504331A6822F45A
:1017C00080321A601A6822F480221A6037E08A4B4D
:1017D0005B6813F4803FE7D0874B1B6813F4003F2E
:1017E00003D06368002B00F0BF81236813F0020F61
:1017F00075D0814B5B6813F00C0F5FD07E4B5B683C
:1018000003F00C03082B54D02369002B00F08A80CE
:101810007A4B01221A60FFF709FE0546764B1B68DA
:1018200013F0020F75D1FFF701FE401B0228F5D916
:1018300003209EE1704A136843F4803313606368A9
:1018400043B3FFF7F3FD05466B4B1B6813F4003FF2
:10185000CBD1FFF7EBFD401B6428F5D9032088E1CD
:10186000B3F5A02F09D0644B1A6822F480321A60B5
:101870001A6822F480221A60E1E703F18043A3F59D
:101880003C331A6842F480221A601A6842F48032AB
:101890001A60D4E7FFF7CAFD0546574B1B6813F4DF
:1018A000003FA2D0FFF7C2FD401B6428F5D90320FA
:1018B0005FE1514B5B6813F4803FA5D14E4B1B6831
:1018C00013F0020F03D02369012B40F04F814A4AE5
:1018D000136823F0F803616943EAC10313602368C6
:1018E00013F0080F33D0A369002B5CD0434B0122C7
:1018F000C3F88024FFF79AFD05463F4B5B6A13F05F
:10190000020F21D1FFF792FD401B0228F5D90320D9
:101910002FE1394A136823F0F803616943EAC103F0
:101920001360DCE7354B00221A60FFF77FFD0546A8
:10193000314B1B6813F0020FD1D0FFF777FD401B2E
:101940000228F5D9032014E10120FFF701FF2368E5
:1019500013F0040F00F09680274BDB6913F0805FD3
:1019600034D1254BDA6942F08052DA61DB6903F049
:1019700080530193019B0125214B1B6813F4807F49
:1019800026D0E368012B3DD0002B53D103F18043D7
:1019900003F504331A6A22F001021A621A6A22F06D
:1019A00004021A6233E0154B0022C3F88024FFF7CB
:1019B0003DFD0546104B5B6A13F0020FC7D0FFF7E1
:1019C00035FD401B0228F5D90320D2E00025D3E7DE
:1019D0000B4A136843F480731360FFF727FD064634
:1019E000074B1B6813F4807FCBD1FFF71FFD801BD3
:1019F0006428F5D90320BCE00010024000004242F8
:101A0000007000405F4A136A43F001031362E36809
:101A100033B3FFF70BFD06465A4B1B6A13F0020F58
:101A20002FD1FFF703FD801B41F288339842F3D991
:101A300003209EE0052B09D0524B1A6A22F00102C6
:101A40001A621A6A22F004021A62E0E74D4B1A6A1F
:101A500042F004021A621A6A42F001021A62D6E7E0
:101A6000FFF7E4FC0646474B1B6A13F0020F08D051
:101A7000FFF7DCFC801B41F288339842F3D9032046
:101A800077E0E5B9E369002B72D03E4A526802F074
:101A90000C02082A56D0022B17D03B4B00221A66A4
:101AA000FFF7C4FC0446374B1B6813F0007F47D098
:101AB000FFF7BCFC001B0228F5D9032059E0314A8E
:101AC000D36923F08053D361DCE72F4B00221A66E1
:101AD000FFF7ACFC05462B4B1B6813F0007F06D0CC
:101AE000FFF7A4FC401B0228F5D9032041E0236A3C
:101AF000B3F5803F1AD023494B6823F47413226A4C
:101B0000606A024313434B601F4B01221A66FFF7C2
:101B10008DFC04461B4B1B6813F0007F0ED1FFF7B2
:101B200085FC001B0228F5D9032022E0154A5368E2
:101B300023F40033A1680B435360DCE7002018E076
:101B4000002016E0012B16D00E4B5B6803F48031A9
:101B5000226A914211D103F47013626A93420ED14A
:101B6000002006E001207047012002E0012000E093
:101B7000002002B070BD0120FBE70120F9E7012041
:101B8000F7E700BF00100240000042420F4B5B68C5
:101B900003F00C02082A01D00D487047C3F38342BA
:101BA0000C49885C13F4803F0BD0084B5B68C3F38F
:101BB0004043094AD35C064A02FB00F0B0FBF3F055
:101BC0007047064B03FB00F0704700BF0010024057
:101BD00000127A00ACBA0008BCBA000800093D0047
:101BE000002800F0A08070B50D460446524B1B68DB
:101BF00003F007038B420BD24F4A136823F007030D
:101C00000B431360136803F007038B4240F08D8091
:101C1000236813F0020F17D013F0040F04D0474AC3
:101C2000536843F4E0635360236813F0080F04D053
:101C3000424A536843F460535360404A536823F068
:101C4000F003A1680B435360236813F0010F31D0F8
:101C50006368012B20D0022B25D0384A126812F07D
:101C6000020F64D035494A6822F0030213434B60E7
:101C7000FFF7DCFB0646314B5B6803F00C03626840
:101C8000B3EB820F16D0FFF7D1FB801B41F28833F4
:101C90009842F0D9032045E0284A126812F4003F28
:101CA000E0D101203EE0254A126812F0007FD9D130
:101CB000012037E0204B1B6803F00703AB420AD931
:101CC0001D4A136823F007032B431360136803F0C6
:101CD0000703AB422DD1236813F0040F06D0174A37
:101CE000536823F4E063E1680B435360236813F007
:101CF000080F07D0114A536823F46053216943EA5F
:101D0000C1035360FFF742FF0C4B5B68C3F303133F
:101D10000B4AD35CD8400B4B18600B4B1868FFF78D
:101D200021FA002070BD012070470120FAE7012050
:101D3000F8E70120F6E700BF002002400010024053
:101D400094BA00080000002008000020014B186829
:101D5000704700BF0000002008B5FFF7F7FF044BF5
:101D60005B68C3F30223034AD35CD84008BD00BFBD
:101D700000100240A4BA000808B5FFF7E7FF044BC3
:101D80005B68C3F3C223034AD35CD84008BD00BFDD
:101D900000100240A4BA00080F2303600B4B5A68DE
:101DA00002F0030242605A6802F0F00282605A6850
:101DB00002F4E062C2605B68DB0803F4E063036185
:101DC000034B1B6803F007030B60704700100240D1
:101DD000002002407047000090F83D30DBB2012B3C
:101DE00027D1022380F83D300268D36843F0010315
:101DF000D3600368114A934210D0B3F1804F0DD0E5
:101E0000A2F59432934209D002F58062934205D044
:101E10001A6842F001021A60002070479A6802F0C6
:101E20000702062A07D01A6842F001021A60002051
:101E30007047012070470020704700BF002C014010
:101E4000704770477047704710B5044603681A69B9
:101E500012F0020F11D0DA6812F0020F0DD06FF0FD
:101E600002021A610123037703689B6913F0030FD1
:101E700070D0FFF7E6FF0023237723681A6912F07A
:101E8000040F12D0DA6812F0040F0ED06FF00402C3
:101E90001A610223237723689B6913F4407F5FD084
:101EA0002046FFF7CEFF0023237723681A6912F03C
:101EB000080F12D0DA6812F0080F0ED06FF0080287
:101EC0001A61042323772368DB6913F0030F4ED0D4
:101ED0002046FFF7B6FF0023237723681A6912F024
:101EE000100F12D0DA6812F0100F0ED06FF010023F
:101EF0001A61082323772368DB6913F4407F3DD000
:101F00002046FFF79EFF0023237723681A6912F00B
:101F1000010F03D0DA6812F0010F36D123681A6975
:101F200012F0800F03D0DA6812F0800F34D12368EA
:101F30001A6912F0400F03D0DA6812F0400F32D164
:101F400023681A6912F0200F03D0DA6812F0200F0C
:101F500030D110BDFFF774FF2046FFF773FF8AE70B
:101F60002046FFF76DFF2046FFF76CFF9BE72046FA
:101F7000FFF766FF2046FFF765FFACE72046FFF757
:101F80005FFF2046FFF75EFFBDE76FF001021A61B9
:101F90002046FFF76DF8C1E76FF080021A61204616
:101FA00000F077F8C3E76FF040021A612046FFF7B0
:101FB0004AFFC5E76FF020021A61204600F068F87A
:101FC000C7E7000003681B4A90420AD0B0F1804F77
:101FD00007D0A2F59432904203D002F5806290427D
:101FE00003D123F070034A681343124A90420AD087
:101FF000B0F1804F07D0A2F59432904203D002F5A1
:102000008062904203D123F44073CA68134323F0E3
:1020100080034A69134303608B68C3620B68836261
:10202000044B984202D00123436170470B6903635C
:10203000F9E700BF002C014040B310B5044690F80A
:102040003D30F3B1022384F83D30214651F8040BB2
:10205000FFF7B8FF012384F8463084F83E3084F857
:102060003F3084F8403084F8413084F8423084F8BE
:10207000433084F8443084F8453084F83D30002003
:1020800010BD80F83C30FFF7A5FEDBE7012070476C
:102090007047704710B504460268136923F4405333
:1020A000C1680B43136183680269134342691A4391
:1020B0000168CB6823F4B05323F00C031343CB60C7
:1020C0000268536923F4407381690B4353610268CA
:1020D000134B9A4220D0FFF73FFE024602EB8202EA
:1020E00002EB820263689B00B2FBF3F20D48A0FB97
:1020F00002314909642303FB11231B013233A0FB86
:1021000003235B0903F0F00202EB011203F00F035B
:10211000216813448B6010BDFFF72EFE0246DDE7F9
:10212000003801401F85EB512DE9F84305460F4665
:1021300016469946DDF820802C68246837EA0403A7
:102140000CBF4FF0010C4FF0000CB4452DD1B8F18D
:10215000FF3FF1D0B8F1000F05D0FFF767F9A0EB12
:1021600009004045E8D92A6802F10C0353E8003F12
:1021700023F4D0730C3242E800310029F3D12A68ED
:1021800002F1140353E8003F23F00103143242E844
:1021900000310029F3D1202385F8413085F8423001
:1021A000002385F84030032000E00020BDE8F883DC
:1021B00060B310B5044690F8413013B3242384F87B
:1021C00041302268D36823F40053D3602046FFF7E0
:1021D00061FF2268136923F49043136122685369F5
:1021E00023F02A0353612268D36843F40053D36079
:1021F00000206064202384F8413084F8423060631A
:1022000010BD80F84030FFF785F8D7E70120704710
:102210002DE9F04182B01E4690F84130DBB2202B10
:102220004BD104460D46904600294AD00AB90120F8
:1022300044E000234364212380F84130FFF7F6F89F
:102240000746A4F82480A4F82680A368B3F5805F2D
:1022500002D04FF000080FE02369FBB14FF00008F7
:102260000AE038F8023B2268C3F308035360E28CAB
:1022700092B2013A92B2E284E38C9BB28BB10096A7
:102280003B46002280212046FFF74EFFD8B9002DA3
:10229000E7D015F8012B23685A60E8E7A846002527
:1022A000EAE700963B46002240212046FFF73CFF2C
:1022B00058B9202384F8413000E0022002B0BDE884
:1022C000F0810120FAE70320F8E70320F6E72DE983
:1022D000F04182B01E4690F84230DBB2202B53D141
:1022E00004460D469046002952D00AB901204CE020
:1022F00000234364222280F842200363FFF796F80C
:102300000746A4F82C80A4F82E80A368B3F5805F5C
:1023100002D04FF0000817E0236913B14FF0000816
:1023200012E0A84600250FE023685B68C3F30803AA
:1023300028F8023B03E023685B682B700135E28DCF
:1023400092B2013A92B2E285E38D9BB2BBB10096A4
:102350003B46002220212046FFF7E6FED0B9002DA3
:10236000E2D0A368B3F5805FE5D013B92369002BF1
:10237000E1D023685B6803F07F032B70DEE7202346
:1023800084F84230002000E0022002B0BDE8F08175
:102390000120FAE70320F8E708B54FF400410748A9
:1023A000FFF7C8F908B9002008BD4FF40041034801
:1023B000FFF7C0F90028F7D10120F5E70008014038
:1023C00008B5FFF7E9FF88B900224FF4005100F18A
:1023D000804000F58830FFF7B4F900224FF4807197
:1023E0000B48FFF7AEF901F0E7FF08BDFFF7D4FF98
:1023F0000128FAD101224FF400510648FFF7A1F954
:1024000001224FF480710248FFF79BF9EDE700BF0E
:10241000000C014000100140EFF3058393B9EFF386
:10242000108393B90C4B1868022804D080B90A4B6A
:1024300001221A607047EFF31183002BF6D06FF082
:10244000050070476FF0050070476FF0050070479A
:102450004FF0FF30704700BF1C0D002008B5EFF3B0
:102460000583B3B9EFF31083B3B90E4B1B68022B8E
:1024700008D0012B13D10B4B02221A6001F0D0F8C7
:10248000002008BDEFF31182002AF2D06FF00500A2
:10249000F7E76FF00500F4E76FF00500F1E74FF0A4
:1024A000FF30EEE71C0D0020F0B587B00024049447
:1024B000EFF30584002C43D1EFF31083002B3FD1C1
:1024C000334B1B68022B16D0002839D000238DF81F
:1024D000173062B3156895B1936903B918235C1E70
:1024E000372C51D8546814F0010F4FD156694EB1B2
:1024F0004FEA960C08E0EFF311830BBBE4E70DF114
:102500001705E9E74FF0800C94682CB1D7685B2F72
:1025100002D9176907B1B6B914B14FF0FF340CE016
:10252000D46894B914699CB14FF0FF3405E00024DD
:1025300018234FF0800C0DF11705012C0AD0ACB117
:10254000049807B0F0BD0124F7E74FF0FF34F4E73B
:102550000024F2E7146992680292019400930B46FA
:102560006246294600F0EEFF0490E9E704AA0192D2
:1025700000930B461FFA8CF2294601F01DF8012842
:10258000DED000230493DBE70020DAE70020D8E761
:102590001C0D002008B5EFF30583A3B9EFF31083FA
:1025A000A3B90C4B1B68022B02D040B9002008BD18
:1025B000EFF31183002BF8D06FF00500F7E701F07F
:1025C00093F90020F3E76FF00500F0E76FF00500E6
:1025D000EDE700BF1C0D0020034B0360034B0B60B5
:1025E00080231360704700BFC00C0020C00A002089
:1025F000034B0360034B0B604FF480731360704711
:1026000020110020200D002000F1080343604FF04E
:10261000FF328260C36003610023036070470023C0
:102620000361704743684B609A688A6051609960A3
:102630000861036801330360704730B40D68B5F179
:10264000FF3F11D000F108031C465B681A68AA42DC
:10265000FAD963684B6099608C60616008610368B7
:102660000133036030BC70470469F2E703694168D5
:1026700082688A60416851605A68824206D00022AE
:1026800002611A68013A1A601868704782685A60D5
:10269000F5E7000082B0002301930D4B1B68B3F1F6
:1026A000FF3F08D04FF0500383F31188BFF36F8FC3
:1026B000BFF34F8FFEE74FF0500383F31188BFF352
:1026C0006F8FBFF34F8F019B002BFCD002B0704780
:1026D0000C00002006480068006880F3088862B695
:1026E00061B6BFF34F8FBFF36F8F00DF00BF0000F5
:1026F00008ED00E04FF0807340F8043C21F0010148
:1027000040F8081C034B40F80C3C40F8202C4038A3
:10271000704700BF95260008000000000000000080
:10272000074B19680868B0E8F00F80F30988BFF319
:102730006F8F4FF0000080F311884EF00D0E704740
:10274000DC1D00204FF0500383F31188BFF36F8F1F
:10275000BFF34F8F0B4A136801331360012B00D076
:1027600070474FF0E023D3F8043D13F0FF0FF7D08C
:102770004FF0500383F31188BFF36F8FBFF34F8F78
:10278000FEE700BF0C000020094B1B6843B94FF067
:10279000500383F31188BFF36F8FBFF34F8FFEE7B2
:1027A000013B034A13600BB983F31188704700BFE4
:1027B0000C000020000000000000000000000000ED
:1027C000EFF30980BFF36F8F0D4B1A6820E9F00F0C
:1027D00010602DE908404FF0500080F3118801F09F
:1027E000A9F84FF0000080F31188BDE8084019688F
:1027F0000868B0E8F00F80F30988BFF36F8F704767
:10280000DC1D002008B54FF0500383F31188BFF39F
:102810006F8FBFF34F8F00F05FFF28B14FF0E023C1
:102820004FF08052C3F8042D002383F3118808BDB4
:102830004FF0E022002313619361054B1B680549AB
:10284000A1FB03139B09013B5361072313617047ED
:1028500000000020D34D621010B582B02A4B1A78C8
:10286000D2B20192FF221A701B78DBB28DF80330CE
:102870009DF8033003F05003244A1370244B0722C1
:102880001A6009E0224A1368013B13609DF8033087
:102890005B00DBB28DF803309DF8033013F0800F3E
:1028A000F0D11B4B1B68032B08D04FF0500383F370
:1028B0001188BFF36F8FBFF34F8FFEE71B02144ADF
:1028C000136003F4E0631360019BDBB20E4A1370E4
:1028D0004FF0E023D3F8202D42F47002C3F8202DEE
:1028E000D3F8202D42F07042C3F8202DFFF7A0FF4F
:1028F0000024084B1C60FFF7EDFE01F01BF8FFF70A
:10290000C9FE204602B010BD00E400E07C110020AA
:10291000801100200C000020EFF305830F2B0FD94E
:10292000114A9B5CDBB2114A12789A4208D94FF0E7
:10293000500383F31188BFF36F8FBFF34F8FFEE710
:102940004FF0E023D3F80C3D03F4E063084A12682B
:10295000934208D94FF0500383F31188BFF36F8F70
:10296000BFF34F8FFEE77047F0E300E07C110020DB
:1029700080110020124A12F0070F1ED0D11D21F045
:102980000701C1F5406313440A460E480260002166
:1029900041601344083B23F007030B480360596070
:1029A0001960991A51601360084B1960084B19603F
:1029B000084B4FF000421A6070474FF44063E4E761
:1029C00088110020941D002084110020901D0020FB
:1029D0008C1D0020881D0020154B1A461B68834261
:1029E000FBD3516802EB010C844509D0416800EB30
:1029F000010C634509D00360904218D01060704705
:102A00004068014451601046F0E710B4094C246856
:102A1000A3420AD05B681944416013681B680360D5
:102A2000904200D0106010BC70470460F8E7704717
:102A3000941D00208411002070B5054600F03EFE74
:102A4000344B1B68A3B1344B1B681D424AD135B1CE
:102A5000083515F0070F02D025F007050835002DC1
:102A600042D02E4B1B68AB424DD32D4A146804E074
:102A7000FFF780FFE7E722461C466368AB4202D2BD
:102A80002368002BF7D1234B1B68A3423DD0166867
:102A900008362368136063685B1B102B10D960191C
:102AA00010F0070F08D04FF0500383F31188BFF3E5
:102AB0006F8FBFF34F8FFEE743606560FFF78CFFBA
:102AC000626816490B689B1A0B60164909688B42AD
:102AD00001D214490B60104B1B6813436360002341
:102AE000236002E0002600E0002600F081FE16F0E0
:102AF000070F0CD04FF0500383F31188BFF36F8F93
:102B0000BFF34F8FFEE70026EFE70026EDE73046E4
:102B100070BD00BF84110020881D00208C1D002086
:102B2000941D0020901D002080B338B50446A0F10C
:102B3000080550F8043C164A1268134208D14FF0B9
:102B4000500383F31188BFF36F8FBFF34F8FFEE7FE
:102B500050F8081C41B14FF0500383F31188BFF3C4
:102B60006F8FBFF34F8FFEE723EA020340F8043C68
:102B700000F0A4FD54F8041C064A13680B441360CB
:102B80002846FFF729FF00F033FE38BD704700BF2D
:102B9000881D00208C1D002010B50446FFF7D2FDD3
:102BA000A26BE36B9A4204D00024FFF7EDFD2046B0
:102BB00010BD0124F9E710B50446FFF7C3FDA36B70
:102BC00023B90124FFF7E0FD204610BD0024F9E7FA
:102BD00070B504461546866B026C5AB903681BB182
:102BE00000200136A66370BD406800F0CBFF0023D3
:102BF0006360F6E76DB98068FDF7AAFA226CA368F6
:102C00001344A3606268934219D32368A3602846E3
:102C1000E7E7C068FDF79CFA226C5142E3689B1A13
:102C2000E3602268934202D263680B44E360022DA2
:102C300001D00020D5E726B1013E0020D1E728468B
:102C4000CFE70020CDE708B50346026C62B1084625
:102C5000D9681144D960D3F804C0614501D319681B
:102C6000D960D968FDF774FA08BD38B50546FFF795
:102C700069FD95F8454064B201E0013C64B2002C66
:102C80000ADD6B6A43B105F1240000F0D1FE002893
:102C9000F3D000F061FFF0E7FF2385F84530FFF740
:102CA00073FDFFF74FFD95F8444064B201E0013C2D
:102CB00064B2002C0ADD2B6943B105F1100000F06D
:102CC000B7FE0028F3D000F047FFF0E7FF2385F8B8
:102CD0004430FFF759FD38BD38B5E0B10D46044624
:102CE000FFF730FD2368E26B216C01FB023060606E
:102CF0000020A063A360013A02FB0133E360FF23DD
:102D000084F8443084F84530FDB9236963B9FFF78E
:102D10003BFD012038BD4FF0500383F31188BFF312
:102D20006F8FBFF34F8FFEE704F1100000F080FEBD
:102D30000028ECD04FF0E0234FF08052C3F8042D70
:102D4000BFF34F8FBFF36F8FE1E704F11000FFF780
:102D50005BFC04F12400FFF757FCD8E738B51D46AB
:102D6000049C0B4649B92460E0632364012120469A
:102D7000FFF7B2FF84F84C5038BD2260F4E740B949
:102D80004FF0500383F31188BFF36F8FBFF34F8F62
:102D9000FEE710B584B01C46844653B192B189B9A0
:102DA0004FF0500383F31188BFF36F8FBFF34F8F42
:102DB000FEE74FF0500383F31188BFF36F8FBFF32B
:102DC0004F8FFEE76AB150230393039B502B13D020
:102DD0004FF0500383F31188BFF36F8FBFF34F8F12
:102DE000FEE70029EFD04FF0500383F31188BFF3C3
:102DF0006F8FBFF34F8FFEE7012384F846300094B6
:102E00009DF818306046FFF7A9FF204604B010BDBA
:102E1000F0B585B0019288B10F461D460446B1B1A8
:102E2000022D20D1E36B012B1DD04FF0500383F313
:102E30001188BFF36F8FBFF34F8FFEE74FF0500342
:102E400083F31188BFF36F8FBFF34F8FFEE7036CDF
:102E5000002BE5D04FF0500383F31188BFF36F8F41
:102E6000BFF34F8FFEE700F07DFE064658B9019B89
:102E7000002B48D04FF0500383F31188BFF36F8FBE
:102E8000BFF34F8FFEE700263DE02A463946204635
:102E9000FFF79EFE636A7BB948B14FF0E0234FF025
:102EA0008052C3F8042DBFF34F8FBFF36F8FFFF72E
:102EB0006BFC012005B0F0BD04F1240000F0B8FD6A
:102EC0000028F4D04FF0E0234FF08052C3F8042DD7
:102ED000BFF34F8FBFF36F8FE9E7FFF755FC00207B
:102EE000E8E702A800F0EAFD012619E0002384F8D3
:102EF000443021E0002384F8453023E02046FFF7EA
:102F0000B4FE00F075FCFFF71DFCA26BE36B9A4268
:102F1000BBD3022DB9D0019B002BDED0002EE0D018
:102F2000FFF732FC00F0CAFBFFF70CFC94F84420DA
:102F300052B2B2F1FF3FD9D094F8452052B2B2F16B
:102F4000FF3FD7D0FFF720FC01A902A800F0C2FD87
:102F5000D8B92046FFF720FE0028CFD0019904F110
:102F6000100000F031FD2046FFF77FFE00F040FC2E
:102F70000028C8D14FF0E0234FF08052C3F8042D51
:102F8000BFF34F8FBFF36F8FBDE72046FFF76DFE96
:102F900000F02EFC00208DE72DE9F84390B10F469C
:102FA00016461C460546B1B1022C20D1EB6B012B15
:102FB0001DD04FF0500383F31188BFF36F8FBFF321
:102FC0004F8FFEE74FF0500383F31188BFF36F8FED
:102FD000BFF34F8FFEE7036C002BE5D04FF050039B
:102FE00083F31188BFF36F8FBFF34F8FFEE7FFF7B7
:102FF00093FCEFF311894FF0500383F31188BFF373
:103000006F8FBFF34F8FAA6BEB6B9A4206D3022CE4
:1030100004D0002089F31188BDE8F88395F8458035
:103020004FFA88F8224639462846FFF7D1FDB8F115
:10303000FF3F06D008F101035BB285F8453001205F
:10304000E8E76B6A0BB90120E4E705F1240000F022
:10305000EFFC18B126B101203060DBE70120D9E791
:103060000120D7E7F0B585B0019290B10F46044634
:10307000C1B100F077FD064600BB019B002B5ED07E
:103080004FF0500383F31188BFF36F8FBFF34F8F5F
:10309000FEE74FF0500383F31188BFF36F8FBFF348
:1030A0004F8FFEE7036C002BE3D04FF0500383F308
:1030B0001188BFF36F8FBFF34F8FFEE700263EE00E
:1030C00039462046FFF7BFFD013DA563236923B9BB
:1030D000FFF75AFB012005B0F0BD04F1100000F02D
:1030E000A7FC0028F4D04FF0E0234FF08052C3F843
:1030F000042DBFF34F8FBFF36F8FE9E7FFF744FB5A
:103100000020E8E702A800F0D9FC012621E0002316
:1031100084F8443029E0002384F845302BE0204631
:10312000FFF7A3FD00F064FB09E02046FFF79DFDDB
:1031300000F05EFB2046FFF73EFD00283FD1FFF781
:1031400001FBA56B002DBBD1019B002BD6D0002E1F
:10315000D8D0FFF719FB00F0B1FAFFF7F3FA94F8B3
:1031600044305BB2B3F1FF3FD1D094F845305BB24D
:10317000B3F1FF3FCFD0FFF707FB01A902A800F092
:10318000A9FC0028D1D12046FFF715FD0028C6D0A4
:10319000019904F1240000F017FC2046FFF765FDBB
:1031A00000F026FB0028CAD14FF0E0234FF08052F8
:1031B000C3F8042DBFF34F8FBFF36F8FBFE700201D
:1031C00089E700000023072B0CD8074A52F8332068
:1031D0000AB10133F7E7044A42F8331002EBC303A4
:1031E00058607047704700BF9C1D002070B50446B2
:1031F0000D461646FFF7A6FA94F844305BB2B3F1D9
:10320000FF3F0DD094F845305BB2B3F1FF3F0BD0D8
:10321000FFF7BAFAA36B5BB12046FFF726FD70BD3E
:10322000002384F84430EDE7002384F84530EFE7CD
:103230003246294604F1240000F0DEFBECE70000F2
:10324000084B1B681B6823B9074B4FF0FF321A600D
:103250007047044B1B68DB68DB685A68024B1A60D6
:10326000704700BFE01D00208C2200202DE9F047B0
:1032700080460D4617469946089EDDF824A00A9C14
:103280009200A521206B02F0F5FB236B07F1804231
:10329000013A03EB820727F007074FF0000CBCF15F
:1032A0000F0F0BD815F80C2004EB0C0383F8342017
:1032B00015F80C3013B10CF1010CF0E7002384F881
:1032C0004330372E00D93726E662E66400252565AF
:1032D000201DFFF7A4F904F11800FFF7A0F92461FD
:1032E000C6F13806A6616462656584F858504A469E
:1032F00041463846FFF7FEF92060BAF1000F01D0D1
:10330000CAF80040BDE8F08738B5002407E004EBB8
:10331000840293000E481844FFF776F90134372CE5
:10332000F5D90C4D2846FFF76FF90B4C2046FFF7F7
:103330006BF90A48FFF768F90948FFF765F909488A
:10334000FFF762F9084B1D60084B1C6038BD00BFD9
:10335000E81D00206022002074220020942200201A
:10336000C0220020AC220020E01D0020E41D00202F
:1033700010B50446FFF7E6F9224A136801331360DB
:10338000214B1B685BB1214B1B686BB91E4B1B6843
:10339000DA6AE36A9A4207D81B4B1C6004E01A4BB6
:1033A0001C601368012B29D0194A1368013313607C
:1033B0006364E06A174B1B68984201D9154B18608B
:1033C00000EB8000211D144B03EB8000FFF72AF96E
:1033D000FFF7DAF90D4B1B687BB10B4B1B68DA6A00
:1033E000E36A9A4209D24FF0E0234FF08052C3F8CB
:1033F000042DBFF34F8FBFF36F8F10BDFFF784FF16
:10340000D2E700BF48220020DC1D0020A8220020B7
:10341000582200205C220020E81D002010B5044640
:1034200090F8593063B1012B11D0022B0ED04FF020
:10343000500383F31188BFF36F8FBFF34F8FFEE705
:10344000006BFFF771FB2046FFF76EFB10BDFFF727
:103450006BFBFBE70F4B1B68D3B110B5FFF772F99D
:103460000D4BDB68DC68201DFFF700F90B4A136881
:10347000013B1360074A1368013B1360FFF784F9AF
:103480002046FFF7CBFF034B1B68002BE6D110BD96
:10349000704700BF4C220020C0220020482200209C
:1034A00008B5FFF7D7FF074B1B68012BF9D94FF081
:1034B000E0234FF08052C3F8042DBFF34F8FBFF3CA
:1034C0006F8FEEE7E81D002070B504460D46174BE0
:1034D0001E68174B18680430FFF7C8F8B4F1FF3FB7
:1034E0000DD03444124B1B685C60A64210D9114BBE
:1034F00018680F4B19680431FFF79FF870BD002D55
:10350000EFD00B4B196804310B48FFF78BF8F5E748
:103510000A4B1868064B19680431FFF78EF8084B00
:103520001B68A342EAD9064B1C60E7E7D4220020BF
:10353000DC1D0020E41D0020AC220020E01D002046
:103540008C22002030B587B00B9C7CB10C9DB5B1AE
:103550005C250495049D5C2D1AD04FF0500383F335
:103560001188BFF36F8FBFF34F8FFEE74FF050030B
:1035700083F31188BFF36F8FBFF34F8FFEE74FF0D8
:10358000500383F31188BFF36F8FBFF34F8FFEE7B4
:103590000C9D2C63022485F8594000240394029565
:1035A00005AC01940A9C0094FFF760FE0C98FFF7AD
:1035B000DFFE059807B030BD2DE9F04385B0074622
:1035C000884614461E469000FFF736FA00B381463F
:1035D0005C20FFF731FA0546B0B1C0F83090E5B194
:1035E000002385F85930039302950D9B01930C9BA2
:1035F00000933346224641463846FFF737FE2846B9
:10360000FFF7B6FE012005E04846FFF78DFAE6E732
:103610004FF0FF3005B0BDE8F0834FF0FF30F9E721
:1036200010B588B000240594069407AA06A905A839
:10363000FEF7D2FF059B0293069B0193009423465D
:10364000079A18491848FFF77DFF184B186040B1DA
:1036500000F04CFB012806D0B0F1FF3F18D008B0B5
:1036600010BD0020F6E74FF0500383F31188BFF33D
:103670006F8FBFF34F8F0E4B4FF0FF321A600D4B21
:1036800001221A600C4B00221A60FFF7E5F8E6E70A
:103690004FF0500383F31188BFF36F8FBFF34F8F49
:1036A000FEE700BFC0BA0008A1340008882200204D
:1036B0008C220020A8220020D4220020024A136875
:1036C00001331360704700BF54220020014B18687B
:1036D000704700BFD4220020F8B53A4B1B68002B7E
:1036E00064D1394B1D6801351D60C5B9374B1B6866
:1036F0001B6843B14FF0500383F31188BFF36F8F02
:10370000BFF34F8FFEE7314A1168314B18681060E4
:103710001960304A136801331360FFF791FD2E4B97
:103720001B68AB4238D900272C4B1B68DB6A03EBC4
:1037300083039A002A4B9B58012B3CD901273AE07E
:103740000127224B1B681B6843B3204B1B68DB68B7
:10375000DC6863689D4226D3261D3046FEF786FF4F
:10376000A36A1BB104F11800FEF780FFE36A1D4A4B
:103770001268934201D91B4A136003EB83039A003A
:10378000314617481044FEF74DFFE26A134B1B68A1
:10379000DB6A9A42D4D2D4E70027D2E70E4B4FF02F
:1037A000FF321A60C0E70C4A1360BDE70E4A136887
:1037B0000133136000270D4B1B6803B10127384606
:1037C000F8BD00BF54220020D4220020E01D0020BC
:1037D000E41D0020902200208C220020DC1D00200F
:1037E000E81D00205C22002050220020D82200206A
:1037F00038B5354B1B6843B94FF0500383F311883C
:10380000BFF36F8FBFF34F8FFEE7FEF79BFF2E4B8B
:103810001A68013A1A601B68002B4FD12B4B1B68AA
:103820000BB900244BE00024294B1B681BB3284B29
:10383000DB68DC6804F11800FEF718FF251D284638
:10384000FEF714FFE06A234B1B68984201D9214B15
:10385000186000EB800029461F4B03EB8000FEF749
:10386000E1FEE26A1D4B1B68DB6A9A42DCD31C4B0B
:1038700001221A60D8E70CB1FFF7E2FC194B1C6873
:1038800084B9174B1C68D4B14FF0E0234FF080523D
:10389000C3F8042DBFF34F8FBFF36F8F01240EE0E9
:1038A000013C07D0FFF718FF0028F9D00C4B01228C
:1038B0001A60F5E70B4B00221A60E2E70024FEF7DE
:1038C00063FF204638BD00BF54220020482200205C
:1038D000942200205C220020E81D0020DC1D002036
:1038E000D82200205022002010B5A8B10446104B69
:1038F0001B6843B14FF0500383F31188BFF36F8F00
:10390000BFF34F8FFEE7FFF7D9FE00212046FFF7F8
:10391000DBFDFFF76DFF48B94FF0E0234FF0805219
:10392000C3F8042DBFF34F8FBFF36F8F10BD00BFDF
:10393000542200201F4B1B681BB11F4B01221A6031
:1039400070471D4B00221A601C4B1B6803EB830160
:103950008A001B498A585AB90BB1013BF6E74FF070
:10396000500383F31188BFF36F8FBFF34F8FFEE7D0
:1039700003EB830082000A4450684068506003EB08
:10398000830C4FEA8C020832114488420BD003EBBF
:10399000830291000A4A0A445268D168094A1160B8
:1039A000064A13607047406862469100044A0A4420
:1039B0005060ECE754220020D82200205C22002036
:1039C000E81D0020DC1D002058B110B50C46094A46
:1039D00011681831FEF731FE01212046FFF774FD12
:1039E00010BD4FF0500383F31188BFF36F8FBFF307
:1039F0004F8FFEE7DC1D002038B570B10D46144630
:103A00000A4A11681831FEF70DFE0CB14FF0FF3570
:103A100021462846FFF758FD38BD4FF0500383F389
:103A20001188BFF36F8FBFF34F8FFEE7DC1D0020BF
:103A300038B5C368DC6824B304F118052846FEF7DE
:103A400015FE184B1B682BBB251D2846FEF70EFEE6
:103A5000E06A154B1B68984201D9134B186000EBC4
:103A600080002946114B03EB8000FEF7DBFDE26A84
:103A70000F4B1B68DB6A9A4211D901200D4B18606D
:103A800038BD4FF0500383F31188BFF36F8FBFF33E
:103A90004F8FFEE729460848FEF7C4FDE7E7002000
:103AA000EEE700BF542200205C220020E81D002029
:103AB000DC1D0020D822002094220020034B1B682C
:103AC0000360034B1B684360704700BF90220020D7
:103AD000D4220020D8B170B50C46054601B3FEF7DC
:103AE00031FE1B4B19686B68C81A2268B2F1FF3FA0
:103AF00027D0184E3668D5F800C0B44501D08B42A7
:103B000024D9824215D80023236001241AE04FF003
:103B1000500383F31188BFF36F8FBFF34F8FFEE71E
:103B20004FF0500383F31188BFF36F8FBFF34F8FB4
:103B3000FEE75B1A134423602846FFF7BFFF00240B
:103B400000E00024FEF720FE204670BD0124F9E7C6
:103B5000D422002090220020014B01221A607047DD
:103B6000D8220020054B1B6833B1054B1B680BB1F5
:103B7000002070470220704701207047A8220020D3
:103B80005422002000283BD038B504461E4B1B6849
:103B9000834208D04FF0500383F31188BFF36F8F37
:103BA000BFF34F8FFEE7036D43B94FF0500383F32C
:103BB0001188BFF36F8FBFF34F8FFEE7013B0365A3
:103BC000C16AC26C91421DD00BB1002038BD051DE9
:103BD0002846FEF74BFDE06CE062C0F13803A361BC
:103BE0000A4B1B68984201D9084B186000EB800013
:103BF0002946074B03EB8000FEF714FD0120E5E7A3
:103C0000002070470020E1E7DC1D00205C2200203E
:103C1000E81D0020064B1A681368B3FA83F35B09AA
:103C2000036013B9D368186870470020704700BF5D
:103C3000DC22002008B54160006191420CD8D21A04
:103C400083699A4201D3012008BD011D094B186800
:103C5000FEF7F3FC0020F7E79A4201D2994206D220
:103C6000011D054B1868FEF7E8FC0020ECE7012079
:103C7000EAE700BFE0220020DC22002030B583B05C
:103C8000FEF760FD114B1B681BB1FEF77DFD03B015
:103C900030BD0F4D2846FEF7B7FC0E4C2046FEF710
:103CA000B3FC0D4B1D600D4B1C60002300930C4BAF
:103CB0000C4A10210A20FFF762F8044B1860002814
:103CC000E3D00949FFF77EFADFE700BF00240020B8
:103CD0008423002098230020DC220020E022002002
:103CE000B0230020E4220020C8BA000810B588B034
:103CF000FFF7C4FF124B1B68CBB100240594069458
:103D000007AA06A905A8FEF773FC059B0293069B6C
:103D10000193022300932346079A0A490A48FFF7B2
:103D200011FC0A4B186010B1012008B010BD4FF013
:103D3000500383F31188BFF36F8FBFF34F8FFEE7FC
:103D400000240020D0BA00082D40000804240020E0
:103D5000B8B19C4603461848006858B300B585B012
:103D600000910192029305291CDCFFF7FBFE02285B
:103D700010D000231A4669460F480068FFF748F83C
:103D800015E04FF0500383F31188BFF36F8FBFF33B
:103D90004F8FFEE70023069A694607480068FFF741
:103DA00037F804E0002362466946FFF7F5F805B0EE
:103DB0005DF804FB002070470024002070B582B03D
:103DC0001A4B1B681A6852B3DB681E68DC68251D35
:103DD0002846FEF74BFC636A20469847E369012BAF
:103DE000EED1A36933449E4207D263602461294621
:103DF0000E4B1868FEF721FCE2E7002100910B460C
:103E000032462046FFF7A4FF0028D9D14FF05003D7
:103E100083F31188BFF36F8FBFF34F8FFEE7044A20
:103E2000106802490860136002B070BDDC220020F7
:103E3000E022002038B50546FFF748FC0446074B52
:103E40001B68834205D800232B60044B1C6020466E
:103E500038BDFFF7B3FF01232B60F6E7AC2300204A
:103E600070B582B006460D4614490968C968CC6829
:103E7000201DFEF7FBFBE169012904D0636A20469F
:103E8000984702B070BDA16933462A4631442046A6
:103E9000FFF7D0FE0028F1D0002100910B463246FA
:103EA0002046FFF755FF0028E8D14FF0500383F379
:103EB0001188BFF36F8FBFF34F8FFEE7DC22002026
:103EC00070B582B006460C46FFF7F8FB01A8FFF775
:103ED000B1FF019B2BBB05460CB9B0421AD22CB1E5
:103EE000124B1B681C68B4FA84F464092246711BE7
:103EF0000F4B1868FFF77AF9FFF77AFC98B94FF083
:103F0000E0234FF08052C3F8042DBFF34F8FBFF36F
:103F10006F8F08E0FFF76CFC29463046FFF7A0FFE3
:103F200001E0FFF765FC02B070BD00BFE022002099
:103F30000024002010B588B002E0049B002B0FDAAB
:103F4000002204A9384B1868FFF78CF8002869D0C4
:103F5000049B002BF1DA07990698059B9847ECE73C
:103F6000069C636913B1201DFEF780FB03A8FFF7D1
:103F700061FF049B092BE3D801A252F823F000BF94
:103F8000A93F0008A93F0008A93F0008413F0008D9
:103F9000EF3F000815400008A93F0008A93F0008AE
:103FA000413F0008EF3F0008059BA1690246194404
:103FB0002046FFF73FFE0028C2D0636A204698479C
:103FC000E369012BBCD1A269002100910B46059841
:103FD00002442046FFF7BCFE0028B1D14FF0500349
:103FE00083F31188BFF36F8FBFF34F8FFEE70599FF
:103FF000A16131B10346024601442046FFF71AFE93
:104000009EE74FF0500383F31188BFF36F8FBFF328
:104010004F8FFEE794F82C30002B91D12046FEF70D
:1040200083FD8DE708B010BD0024002000B583B0EB
:1040300001A8FFF7EFFD0199FFF742FFFFF77AFFB5
:10404000F6E7000030B583B01A4C204600F0E2F8E5
:10405000204600F0F3FB204600F0CFFB12E0154DA8
:104060000F230093A3B220224021284600F0ADFC8C
:10407000284600F0CFFB013C0C2CF0DC0D4800F092
:10408000EAFB08B11424F7E70A4C204600F0B5FB20
:10409000094B0193402300938023002211462046C0
:1040A00000F057FB204600F0B5FB204600F0A5FBD2
:1040B00003B030BD08240020DCBA000870B584B01D
:1040C00004460D461646194600F0ACFFBDF9202007
:1040D000054901A801F020FD01AB324629462046E2
:1040E00000F060FF04B070BDD8BA000830B587B0EA
:1040F000002402940394049405940F4B9A6942F0AF
:1041000008029A619B6903F008030193019B0B4D20
:1041100022464FF440412846FDF713FB4FF440433D
:1041200002930123039304940223059302A92846D2
:10413000FDF7EEF907B030BD00100240000C014061
:1041400010B44FF0E02254690B4B1B6800FB03FCDA
:104150009369002104E0E01A02441144614509D248
:104160001A464FF0E0239B699A42FAD0F3D9D21A4B
:104170001144F3E710BC70479C24002008B528398F
:10418000252940D8DFE801F013171515151B3F3F0F
:104190003F3F3F3F3F3F3F3F3F3F3F3F3F3F3F3F2F
:1041A0003F3F3F3F3F3F3F3F3F3F3F3F2331FFF7D1
:1041B0009DFF012008BD1046FDF73EF9F9E7022AF0
:1041C00003D80520FFF7BCFFF3E70120FAE72AB97F
:1041D0004FF400410E48FDF7B4FAEAE701224FF42C
:1041E00000410B48FDF7ADFAE3E72AB94FF48041EF
:1041F0000748FDF7A6FADCE701224FF480410448A6
:10420000FDF79FFAD5E7012380F82730D1E700BFFB
:10421000000C014010B50446074B084A084900F05D
:10422000FFFB204601F0BCFB0021204601F0BFFB54
:10423000204600F0E2FA10BD7D410008D755000885
:10424000ACCE000810B50E4C00224FF400512046B1
:10425000FDF777FA00224FF480512046FDF771FAFE
:10426000A4F5806401224FF400612046FDF769FA4D
:1042700001224FF480512046FDF763FA10BD00BFC4
:10428000000C014010B50D4C002202212046FDF724
:1042900058FA002201212046FDF753FAA4F5806464
:1042A00001224FF480712046FDF74BFA01224FF4B2
:1042B00080512046FDF745FA10BD00BF000C0140BB
:1042C00010B50E4C00224FF400512046FDF739FA8C
:1042D00001224FF480512046FDF733FAA4F58064A3
:1042E00001224FF400612046FDF72BFA01224FF422
:1042F00080512046FDF725FA10BD00BF000C01409B
:1043000010B50D4C002202212046FDF71AFA0122B9
:1043100011462046FDF715FAA4F5806401224FF4FA
:1043200080712046FDF70DFA01224FF4805120469E
:10433000FDF707FA10BD00BF000C014010B50E4C90
:1043400001224FF400512046FDF7FBF900224FF403
:1043500080512046FDF7F5F9A4F5806401224FF461
:1043600000612046FDF7EDF901224FF4805120460F
:10437000FDF7E7F910BD00BF000C014010B50D4C72
:10438000012202212046FDF7DCF90022012120460E
:10439000FDF7D7F9A4F5806401224FF4807120461F
:1043A000FDF7CFF901224FF480512046FDF7C9F9FE
:1043B00010BD00BF000C014008B5FFF743FFFFF739
:1043C00061FF08BD08B5FFF7B9FFFFF7D7FF08BDCC
:1043D00008B5FFF775FFFFF793FF08BD08B5FFF7B6
:1043E0006FFFFFF7CBFF08BD08B5FFF7A7FFFFF78B
:1043F00087FF08BD10B584B00446002300930193E5
:10440000029303934FF4007300930123019303235A
:10441000039369460948FDF77BF83CB900224FF445
:1044200000710648FDF78DF904B010BD01224FF46C
:1044300000710248FDF785F9F6E700BF000C014066
:1044400030B585B0002300930193029303934FF49A
:104450000075009501230293064C69462046FDF73E
:1044600057F829462046FDF765F900B1012005B04F
:1044700030BD00BF000C014010B44FF0E022546981
:104480000E4B1B680E49A1FB033C4FEA9C4C00FB02
:104490000CFC9369002104E0E01A024411446145D8
:1044A00009D21A464FF0E0239B699A42FAD0F3D919
:1044B000D21A1144F3E710BC704700BF000000207F
:1044C00083DE1B43F8B5002635462EE00120FFF7BA
:1044D000D3FF0134E4B24FF400711748FDF72AF915
:1044E00008B9632CF2D92820FFF7C6FF4FF40071FA
:1044F0001148FDF71FF90746012800D000270024C6
:1045000004E00120FFF7B8FF0134E4B24FF400717A
:104510000948FDF70FF9012801D1632CF1D96D008D
:10452000EDB23D43EDB20136F6B2072E01D80024BC
:10453000D1E72846F8BD00BF000C014038B5002087
:10454000FFF758FF1220FCF777FF274C01224FF4AA
:1045500000712046FDF7F5F81420FFF78DFFFFF7F7
:104560006FFF1420FFF788FF4FF400712046FDF71E
:10457000E1F8054678B11D4A1078537803449178E4
:104580000B44D478234412799A4227D0002038BDB6
:104590000120FFF771FF4FF400711348FDF7CAF8CF
:1045A0000028F5D02C464FF400710F48FDF7C2F8F3
:1045B00001280DD1632C0BD80120FFF75DFF0134DA
:1045C000E4B2F0E7FFF77EFF084B58550135EDB236
:1045D000042DF7D93220FFF74FFFCCE7034BD871FA
:1045E00099710120D3E700BF000C0140A0240020F6
:1045F00008B5FFF7A3FF38B1064A53790133DBB2A0
:10460000537113F0800F00D108BD134600225A7178
:10461000FAE700BFA024002008B5FFF7E9FF08BDB6
:1046200010B5144CFF23012221461348FDF74FFE1D
:104630002378423B112B19D8DFE803F00C18181827
:104640000918181818181218181818180F15FFF745
:10465000B9FE10BDFFF7BCFEFBE7FFF7C5FEF8E7AC
:10466000FFF7BCFEF5E7FFF7A7FEF2E7FFF7A4FEB2
:10467000EFE700BFA8240020740A0020FCF714FE16
:104680000B480C490C4A002302E0D458C4500433B0
:10469000C4188C42F9D3094A094C002301E0136085
:1046A0000432A242FBD301F0C1F9FCF71EFD7047B2
:1046B00000000020C00900203CD30008C0090020F1
:1046C000F8280020FEE72DE9F04F83B007460E469C
:1046D00091461D46DDF8308090F892A0CB18541C0E
:1046E000A4B200949BB200F073FD78B3BAFA8AFBCF
:1046F0004FEA5B1B012414E087F892A0002300938B
:1047000001234A463146384600F0CCFC0136B6B2A9
:10471000640014F0FF0402D108F101080124013DF6
:10472000ADB28DB198F800302342E5D197F89130C1
:10473000002BEBD187F892B0009301234A46314613
:10474000384600F0AFFCE1E787F892A003B0BDE87F
:10475000F08F2DE9F04782B08246884614461F4606
:10476000BDF828500B9E03F10709C9F3CC0903EBF0
:10477000010C53199BB200931FFA8CF300F028FD33
:1047800060B90DE000963B46224641465046FFF791
:104790009AFF4E440134A4B2013DADB2002DF1D1D7
:1047A00002B0BDE8F08710B582B003681B7C446B93
:1047B00003FB01F1C90089B221440091002101F0FD
:1047C000D7F802B010BD2DE9F041064690F83870D8
:1047D00090F83950036893F8118000242A46214646
:1047E0003046FFF7E0FF0134E4B20135EDB2A742F5
:1047F00001D9A845F2D8BDE8F08108B503681B7C53
:1048000090F8382003FB02F2D2000021406B01F047
:1048100031F908BD10B50446FFF7D5FF204601F079
:10482000CDF810BD10B5044680F83910036B1B6835
:104830009847236B5B682046984710BD10B5044627
:1048400090F8933023B900212046FFF7EBFF10BD0D
:10485000FFF7D3FFF7E738B50446FFF7B4FF94F846
:10486000393094F838501D44EDB223685B7CAB427C
:1048700008D994F8933053B929462046FFF7D2FF60
:10488000012038BD204601F099F80020F9E72046C4
:10489000FFF7B3FFF0E72DE9F84380460F46914656
:1048A0001C46BDF820609DF8245015F0010F0AD178
:1048B00015F0020F16D115F0080F24D115F0040FD2
:1048C00032D1BDE8F883B21A591892B289B200F019
:1048D0004EFCF21B04EB090192B289B2404600F093
:1048E00046FCE5E7A6EB0902E11B92B289B240461D
:1048F00000F03DFCF21BA4EB090192B289B24046E4
:1049000000F035FCD7E706EB0902E11992B289B253
:10491000404600F02CFCBA1904EB090192B289B2AE
:10492000404600F024FCC9E706EB0902E11B92B205
:1049300089B2404600F01BFCBA19A4EB090192B2FF
:1049400089B2404600F013FCBBE72DE9F04F85B07B
:104950000390894692461E469DF838B0C3F1010483
:1049600024B2C3EBC3384FEA48080FFA88F8CDF8F1
:1049700004B000920B4632460021FFF78CFF002561
:1049800001271AE0013EB6B208F102081FFA88F3C7
:104990000FFA88F81C4424B20135ADB20237BBB21D
:1049A0003FB21C4424B2CDF804B0CDF800A04B4671
:1049B000324629460398FFF76EFFB54202D2002C1B
:1049C000E0DAE9E705B0BDE8F08F2DE9F04182B00B
:1049D00080460E4617461D46CB189BB2AC18A4B2B3
:1049E0000133521B491B0134A4B200949BB292B212
:1049F00089B200F0EDFB10B902B0BDE8F0819DF87E
:104A0000203000932B463A4631464046FFF79DFF43
:104A1000F2E700000823037000487047AC24002030
:104A200030B585B004460D4600931346084A09493F
:104A300000F0E6FF0DF10F00FFF7ECFF01460095D7
:104A4000054B9DF80F20204600F0BBFC05B030BDA3
:104A500019570008C5580008FD510008405C704710
:104A60004218435C507800EB032080B2704700206E
:104A7000704738B504460D4600212846FFF7EEFF83
:104A8000207001212846FFF7E9FF607002212846C7
:104A9000FFF7E4FFA07003212846FFF7DFFFE07077
:104AA00004212846FFF7DAFF207105212846FFF789
:104AB000D5FF607106212846FFF7D0FFA0710721BE
:104AC0002846FFF7CBFFE07108212846FFF7C6FF15
:104AD000207209212846FFF7C1FF60720A2128468B
:104AE000FFF7BCFFA0720B212846FFF7B7FFE0726B
:104AF0000C212846FFF7B2FF20730D212846FFF74F
:104B0000ADFF60730E212846FFF7A8FFA0730F21A9
:104B10002846FFF7A3FFE07310212846FFF79EFF0A
:104B2000207411212846FFF79BFF6082132128463D
:104B3000FFF796FFA08215212846FFF791FFE0823C
:104B400038BD10B590F80CC00468227842FA0CFE0B
:104B50005FFA8EF20CEB0103DBB2072B0DD9CCF11F
:104B6000080C5FFA8CFC621C0260627802FA0CF29C
:104B700042EA0E02D2B2083BDBB24FF0FF3C0CFA25
:104B800001F1037322EA010010BD38B5044600F1BB
:104B900060050166002380F86C3090F87810284694
:104BA000FFF7CFFF84F86A0094F879102846FFF7E2
:104BB000C8FF84F86B0094F8923084F86E30B3FA32
:104BC00083F35B0984F86F3038BD10B50C46FFF7EE
:104BD000B8FF013CE4B2012303FA04F4001B40B225
:104BE00010BD012B08D0022B09D013B1401A80B29E
:104BF0007047104480B27047084480B27047801AF2
:104C000080B27047012B08D0022B09D013B1104499
:104C100080B27047084480B27047801A80B27047F3
:104C2000401A80B270472DE9F04F89B006460C4615
:104C3000079290F968305FFA83FB90F96930DBB234
:104C4000039319E0059420E096F86E3086F89230D0
:104C5000CDF80080BDF814300699304600F022FAF5
:104C6000BC423DD3ABEB05052C44E4B2039B0133BE
:104C7000DBB203934FF0000B96F96A50EDB2A5EB4F
:104C80000B07FFB2BC42DDD30597B6F866A04FFA1A
:104C90008BF19DF90C9096F8708043464A4604913A
:104CA000B6F86400FFF7AEFF069043464A46049903
:104CB0005046FFF796FF0246079B002BC4D196F89B
:104CC0006D30002BCCD196F86F3086F89230CDF84D
:104CD0000080BDF814300699304600F0E3F9BFE7D4
:104CE0005C4486F8684086F8699009B0BDE8F08FAA
:104CF0002DE9F04F85B0044600F16005FFF745FF50
:104D000094F96B7094F87A102846FFF75EFF80469E
:104D100094F87B102846FFF758FF064694F87C105D
:104D20002846FFF752FF039094F96A90B9F1000FFB
:104D300055DD3E44F6B2764276B294F870B05B46EA
:104D400032464146B4F86400FFF75CFF8246A4F89F
:104D500064005B4632464146B4F86600FFF741FF07
:104D60000246A4F86600BBF1030F68D8DFE80BF039
:104D7000023B495B1FFA89F353449BB2384480B22B
:104D800000905146204600F023FA40B3002384F8F7
:104D9000683084F8693094F876102846FFF7D1FE21
:104DA000804694F877102846FFF7CBFE064600228F
:104DB00041462046FFF737FF012231462046FFF7E4
:104DC00032FF01212846FFF7BCFE0028EFD194F9FD
:104DD0006930BB42DFDB94F86E3084F89230039880
:104DE00005B0BDE8F08FAAEB070189B201310AF1E5
:104DF00001039BB21FFA89F0104480B21FFA81FAB6
:104E0000BEE71FFA89F1AAEB010189B201310AF16B
:104E100001039BB2C61BB6B20136013290B2B2B2E8
:104E20001FFA81FAACE70AEB07039BB21FFA89F17C
:104E3000411A89B20131013290B28AB2A0E75346D9
:104E40009EE770B50E46846D1734FF2913D860298C
:104E500003D9B0F888301C4406E0402904D9B0F8E2
:104E600086301C4400E01C44637803B32278B242CD
:104E7000F9D1A01C1CE0B0F88A00044425460021AA
:104E80002846FFF7EDFD044402212846FFF7E8FD20
:104E900004358642F3D801E0A3781C442278637875
:104EA00053EA022305D09E42F6D1E01C00E0002028
:104EB00070BD0020FCE710B50446A0F86410A0F80F
:104EC00066201946FFF7BDFF28B101462046FFF7CF
:104ED0000FFF80B210BD0020FCE7F8B504460D4678
:104EE00016461F4690F87030032B07D8DFE803F012
:104EF000020D1217C36D98470644B6B23B463246C0
:104F000029462046FFF7D7FFF8BDC36D98472D1AF5
:104F1000ADB2F3E7C36D9847361AB6B2EEE7C36D8C
:104F200098470544ADB2E9E72DE9F04104460F4644
:104F300016461D4600F072FA4FF0000804E00744E0
:104F4000BFB240441FFA80F863682978204698472A
:104F50004FF6FF72904222D001354FF6FE7290421A
:104F6000F2D00346324639462046FFF7B6FF94F8A2
:104F70007030032BE5D801A252F823F03F4F000810
:104F80008D4F0008934F0008994F00080644B6B2B1
:104F9000D7E73F1ABFB2D4E7361AB6B2D1E74046D8
:104FA000BDE8F08110B5024C4460FFF7BDFF10BDB5
:104FB00007540008836D73B390F9812080F88E2028
:104FC00090F9823080F88F3090F88D1019B3012954
:104FD00014D000B590F97E1090F980C001EB0C0E52
:104FE000724505DAC9B25FFA8CF2114480F88E106E
:104FF000634501DD80F88FC05DF804FB90F98310F4
:105000008A4201DA80F88E1090F98420934202DD02
:1050100080F88F2070477047014BC365704700BF11
:105020006F4A0008836D8B4209D010B50446816534
:105030007430FFF71EFD2046FFF7BCFF10BD704720
:1050400000B5B0F800E0B1F800C0F4441FFA8CFCE1
:10505000E64505D99E4513D203F1FF3C1FFA8CFCAF
:105060009E450FD294450FD9964500D372469C4574
:1050700000D8634602809B1A0B8001205DF804FB78
:105080009646EDE70020F9E70020F7E730B583B05A
:10509000C48F121BC46A9DF81850009592B2A047A5
:1050A00003B030BD70B584B004469DF82000ADF863
:1050B0000E10ADF80C20ADF80A3094F88C305BB3CC
:1050C000BDF80A3043B3012B03D9022826D00328A8
:1050D0002DD010F0010534D1B4F84C20BDF80C30BF
:1050E0009A4219D8B4F84E20934215D2B4F84A30F7
:1050F000B4F848200DF10A010DF10E00FFF7A0FFF2
:1051000050B1236B9E680095BDF80A30BDF80C20A5
:10511000BDF80E102046B04704B070BD8AB2D31A55
:105120009BB2ADF80E300133ADF80E30D1E7BDF8CB
:105130000C20D31A9BB2ADF80C300133ADF80C3013
:10514000C7E7B4F84820BDF80E309A42E4D8B4F866
:105150004A209342E0D2B4F84E30B4F84C200DF11E
:105160000A0103A8FFF76CFF0028CAD1D4E7B0F802
:105170004C3093420BD8B0F84E30934207D9B0F878
:1051800048308B4203D8B0F84A308B4200D8704781
:1051900000B583B0002300930123FFF783FF03B022
:1051A0005DF804FB8A4205D2834209D89A4209D9A4
:1051B00001207047834207D99A4207D901207047DE
:1051C0000120704700207047002070470020704782
:1051D00070B504460D461E46BDF81030B0F84E10AE
:1051E000B0F84C00FFF7DEFF38B133462A46B4F87A
:1051F0004A10B4F84800FFF7D5FF70BD70B59DF8B0
:10520000105002F0070E4FF0010C0CFA0EFC5FFA82
:105210008CFC90F89260012E1AD90024012E19D02E
:1052200022F007060268127C06FB02F292B21144D9
:10523000426B1144DDB90A782243D2B20A7082EA85
:105240000C0201F8012B013B9BB2002BF3D170BD86
:105250006446E3E74FF0000CE2E701241BE0640042
:10526000E4B24FEA4C0C5FFA8CFC002BEFD00A78CA
:105270002243D2B20A7082EA0C020A700EF10102D5
:10528000013B9BB212F0070EE9D1428F114490F816
:105290009220012AE1D9012AE7D04FF0010CE4E77E
:1052A00010B5046890F838108AB2CB008387237C4D
:1052B000DB00438790F839C01FFA8CFE4FEACC031D
:1052C000C387614494F811C0614502DDACEB0E0266
:1052D00092B2D20092B2A0F84030A0F8423013440B
:1052E000A0F84230A38AA0F84430E38AA0F8463000
:1052F00010BD08B5FFF7D4FF08BD10B582B0044655
:10530000B0F856300093B0F85230B0F85420B0F8EE
:105310005010FFF75DFF20B9002384F88C3002B0F5
:1053200010BD012384F88C30B4F84820B4F8503014
:105330009A4201D2A4F84830B4F84A20B4F8523066
:105340009A4201D9A4F84A30B4F84C20B4F8543049
:105350009A4201D2A4F84C30B4F84E20B4F856303A
:105360009A42DCD9A4F84E30D9E708B50022A0F85B
:105370004820B0F84420A0F84A20B0F84020A0F817
:105380004C20B0F84220A0F84E20FFF7B6FF08BD31
:1053900010B582B09DF810400094FFF777FE02B080
:1053A00010BD08B50022A0F85020A0F854204FF6F8
:1053B000FF72A0F85220A0F85620036B5B68984754
:1053C00008BD70B50446049E00258565C36241632F
:1053D00080F8382080F8395080F86D5080F891506E
:1053E00080F88D50012380F8923080F89330066366
:1053F000336898472046FFF7D4FF2046FFF70CFE9E
:1054000084F8705070BD19B10A2904D088B2704771
:105410004FF6FF7070474FF6FF707047002380F81B
:105420002630704708B503685A7B2D2100F0CDFA6D
:1054300008BD10B5044601224C2100F0C6FA012235
:105440004D21204600F0C1FA2046FFF7EBFF10BDCA
:1054500010B5044601224C2100F0B7FA2046FFF7B0
:10546000E1FF10BD08B501224D2100F0AEFA08BDE4
:1054700008B500224D2100F0A8FA08BD10B5044679
:10548000FFF7F6FF2046FFF7CDFF2046FFF7E0FFCE
:105490002046FFF7E7FF2046FFF7C4FF002384F80C
:1054A000253010BD08B500224C2100F08EFA08BD51
:1054B00010B5044690F825307BB92046FFF7D2FF9F
:1054C0002046FFF7D5FF2046FFF7ACFF2046FFF749
:1054D000E9FF012384F8253010BDFFF7C3FF204604
:1054E000FFF7A0FF2046FFF7B3FFE6E710B504463D
:1054F00059B1FFF7B7FF2046FFF794FF2046FFF7AB
:10550000A7FF2046FFF7CEFF10BDFFF7B1FFF2E780
:1055100010B50446FFF7A6FF2046FFF783FF20469D
:10552000FFF796FF2046FFF79DFF2046FFF77AFF23
:105530002046FFF7B7FF10BD38B504460D4601F011
:105540008001FFF7D3FF05F040012046FFF7CEFFB3
:1055500005F020012046FFF7C9FF05F010012046A5
:10556000FFF7C4FF05F008012046FFF7BFFF05F075
:1055700004012046FFF7BAFF05F002012046FFF7BD
:10558000B5FF05F001012046FFF7B0FF2046FFF709
:10559000BFFF38BD10B5134604690A461721A0475E
:1055A00010BD00B583B08DF807100DF10702012181
:1055B000FFF7F0FF03B05DF804FB10B504690023AA
:1055C0001A461821A04710BD10B5046900231A46D9
:1055D0001921A04710BD70B5064614461D46143962
:1055E0000C2908D8DFE801F0140707101821070775
:1055F000070707072500002070BD15F8011B30467E
:10560000FFF79AFF013CE4B2002CF6D10120F3E74A
:10561000FFF70FFF0120EFE7FFF74AFF96F824108E
:105620003046FFF789FF0120E6E7FFF727FF01205B
:10563000E2E70120E0E770B504460D461646FFF7A5
:10564000BCFF40212046FFF7ACFF33462A46172116
:1056500020462569A8472046FFF7B6FF70BD10B564
:105660000A46C46800231521A04710BD10B50A469C
:10567000C46800231621A04710BD10B51346C468A6
:105680000A461721A04710BD10B5C46800231A466A
:105690001821A04710BD10B5C46800231A4619216F
:1056A000A04710BD70B582B006460D4616E015291C
:1056B0000CD202B070BDFE29FBD122788DF80720F4
:1056C0002921304600F081F9023507E022788DF873
:1056D0000720F46800233046A04702352C4614F812
:1056E000011B1929E7D818290ED21629DFD9172945
:1056F000DFD123788DF807300DF107020121304604
:10570000FFF7BBFF0235E9E7F56800231A4630468C
:10571000A8472546E2E70000F8B5054614461E46B0
:10572000A1F1140CBCF1050F56D8DFE80CF03703DB
:10573000181D454A294B1B7873B92846FFF73DFFD2
:1057400000212846FFF72DFF21462846FFF729FFB5
:105750000120224B1870F8BDFFF736FFEDE7114628
:10576000FFF71FFF0120F6E71C4B1B7853B1FFF733
:105770002BFF07E0324618212846FFF75CFF183C54
:10578000E4B21836182CF5D8324621462846FFF7E1
:1057900052FF124B00221A700120DCE790F82430EF
:1057A000FF2B05D02F69334622462846B847D2E75B
:1057B000782380F82430F5E7084B00221A70012086
:1057C000C9E7064B1B7823B9044B00221A7001204D
:1057D000C1E7FFF7F9FEF7E70020BCE7AC2800209F
:1057E000F8B5064615461C460B39042960D8DFE893
:1057F00001F0035F0E21300022B92E49FFF752FF5E
:10580000012025E02C49FFF74DFF012020E042B99F
:105810002A49FFF747FF33689B7C86F82230012036
:1058200016E02749FFF73EFF3368DB7C86F822301D
:1058300001200DE0FFF728FF81213046FFF70FFF21
:1058400029463046FFF712FF3046FFF724FF0120BC
:10585000F8BDFFF719FF6779FF00FBB296F82270D9
:105860001F44FFB240213046FFF7F9FE390941F0ED
:1058700010013046FFF7F3FE07F00F013046FFF747
:10588000F5FEA17941F0B0013046FFF7EFFE217936
:10589000C900226801F0F8013046FFF7EEFE6A1EEB
:1058A00012F0FF05F3D13046FFF7F5FE0120CFE7F8
:1058B0000020CDE700CF000808CF0008B8CE0008D0
:1058C000C0CE000838B505460C46FFF789FF90B9F1
:1058D000092C0AD00A2C0FD1284600F018F80749E5
:1058E0002846FFF7DFFE012006E00549284600F0C4
:1058F00009F8012000E0012038BD00BFC8CE000833
:1059000010CF000801608B7C80F82230704710B502
:10591000044600231A462821D0F814C0E04700238B
:105920001A4614212046D4F80CC0E04701224B212E
:10593000204600F04AF823681A792921204600F011
:1059400044F800224B21204600F03FF823681A79E2
:105950002921204600F039F801224B21204600F091
:1059600034F823685A792921204600F02EF810BD1A
:1059700010B582B08DF805108DF806208DF8043032
:10598000049B009384686B4601220F21A04702B05C
:1059900010BD10B5846800231A460921A04710BD28
:1059A00010B5846800231A460A21A04710BD10B51F
:1059B0000A46846800230B21A04710BD10B58468F7
:1059C00000231A461021A04710BD10B544690023DA
:1059D000A04710BD0020704700230360074A826083
:1059E000C2600261426180F8233080F82630836112
:1059F000FF2380F8243080F828307047D5590008FC
:105A0000F8B504460F4616461D46FFF7E5FFA760AA
:105A1000E6602561069B63612046FFF7BAFFF8BD8B
:105A2000014B1868704700BF1000002070B50D4E84
:105A30000D4D761BB61006D0002455F8043B0134FA
:105A40009847A642F9D1094E094D05F0F5FF761B9E
:105A5000B61006D0002455F8043B01349847A642FE
:105A6000F9D170BD30D3000830D3000838D3000816
:105A700030D30008830730B548D0541E002A3FD0E9
:105A80000346CAB201E0013C3AD303F8012B9D075B
:105A9000F9D1032C2DD9CDB245EA05250F2C45EAC5
:105AA000054536D9A4F1100222F00F0C03F1200EA7
:105AB000E6444FEA121C03F1100242E9045542E9A0
:105AC000025510327245F8D10CF1010214F00C0F9E
:105AD00003EB021204F00F0C13D0ACF1040323F01B
