:020000040800F2
:1000000000500020553C000825060008270600087F
:10001000290600082B0600082D0600080000000035
:100020000000000000000000000000003121000876
:100030002F06000800000000D1210008152200084A
:100040009D3C00089D3C00089D3C00089D3C00082C
:100050009D3C00089D3C00089D3C00089D3C00081C
:100060009D3C00089D3C00089D3C00089D3C00080C
:100070009D3C00089D3C00089D3C00089D3C0008FC
:100080009D3C00089D3C00089D3C00089D3C0008EC
:100090009D3C00089D3C00089D3C00089D3C0008DC
:1000A0009D3C0008310600089D3C00089D3C00086E
:1000B0009D3C00089D3C00089D3C00089D3C0008BC
:1000C0009D3C00089D3C00089D3C00089D3C0008AC
:1000D0009D3C00089D3C00089D3C00089D3C00089C
:1000E0009D3C00089D3C00089D3C0008000000006D
:1000F0000000000000000000000000000000000000
:0C01000000000000000000005FF808F1A3
:1001100010B5054C237833B9044B13B10448AFF341
:1001200000800123237010BD54080020000000004F
:10013000106D000808B5034B1BB103490348AFF32A
:10014000008008BD0000000058080020106D000865
:10015000844641EA000313F0030349D1403A23D314
:100160000B6803604B6843608B688360CB68C36037
:100170000B6903614B6943618B698361CB69C3611F
:100180000B6A03624B6A43628B6A8362CB6AC36207
:100190000B6B03634B6B43638B6B8363CB6BC363EF
:1001A00040304031403ADBD230320BD30B68036031
:1001B0004B6843608B688360CB68C360103010313C
:1001C000103AF3D20C3205D351F8043B40F8043B0B
:1001D000043AF9D2043208D0D2071CBF11F8013B0F
:1001E00000F8013B01D30B8803806046704700BFD5
:1001F000082A13D38B07B1D010F00303AED0C3F19C
:100200000403D21ADB071CBF11F8013B00F8013BC5
:10021000A4D331F8023B20F8023B9FE7043AD9D33C
:10022000013A11F8013B00F8013BF9D20B78037059
:100230004B7843708B7883706046704700B585B00B
:1002400000230193029303931048114A02608360D4
:10025000037303754FF46022C2614360012303619D
:1002600000F09AFC60B901230193029300230393E9
:1002700001A9064800F00AFB28B905B05DF804FBA7
:1002800000F010F9EFE700F00DF9F6E77008002034
:100290000024014000B585B000230193029303932D
:1002A0001148124A02608360037303754FF46022A1
:1002B000C26143600123036100F06EFC68B9022350
:1002C0000193012302930023039301A9064800F040
:1002D000DDFA28B905B05DF804FB00F0E3F8EEE7BD
:1002E00000F0E0F8F6E700BFA00800200028014079
:1002F00000B589B000230493059306930793036820
:10030000204A934205D0204A93421ED009B05DF89E
:1003100004FB1E4B9A6942F400729A619A6902F4D6
:1003200000720092009A9A6942F004029A619B69F5
:1003300003F004030193019B022304930323059319
:1003400004A9134800F01EFDE0E7104B9A6942F43F
:1003500080629A619A6902F480620292029A9A69B2
:1003600042F004029A619B6903F004030393039B28
:10037000042304930323059304A9054800F002FD18
:10038000C4E700BF002401400028014000100240E3
:100390000008014008B503F05DFB04F045FF1420A0
:1003A00001F000FEF9E7000000B583B0114C0F2505
:1003B000009520231A464021204603F095FE204652
:1003C00003F014FD0C4B1A6820320C4B19684031B5
:1003D00000950A2392B289B2204603F0A9FE204676
:1003E00003F004FD204603F0F4FC0A2001F0DAFDDE
:1003F000DCE700BF00230020A8270020A42700205E
:1004000008B5074A0021074801F056FD064B186061
:10041000064A0021064801F04FFD064B186008BD52
:100420005C6D000895030008D4080020386D0008B2
:10043000A9030008D008002084B0134B9A6942F049
:1004400010029A619A6902F010020092009A9A6969
:1004500042F020029A619A6902F020020192019A08
:100460009A6942F004029A619A6902F004020292C7
:10047000029A9A6942F008029A619B6903F00803A4
:100480000393039B04B070470010024008B5026854
:10049000034B9A4200D008BD00F0CEF9FBE700BF45
:1004A000002C014072B6FEE700B595B0282200216D
:1004B0000DEB020004F022FF00230593069307933F
:1004C00008930993019302930393049301220A92E0
:1004D0004FF480330B930E920222119212934FF439
:1004E000E01313930AA800F07BFDC8B90F2305930E
:1004F00002210691002307934FF48062089209932A
:1005000005A800F09FFF68B9022301934FF4004350
:10051000039301A801F090F830B915B05DF804FB21
:10052000FFF7C0FFFFF7BEFFFFF7BCFF08B500F005
:1005300071F9FFF7B9FFFFF77FFF00F015F900F041
:10054000C9F8FFF77BFEFFF7A5FE01F06DFCFFF792
:1005500057FF01F08BFCFEE700B583B0114B9A69A1
:1005600042F001029A619A6902F001020092009A37
:10057000DA6942F08052DA61DB6903F0805301935B
:10058000019B00220F216FF0010000F0B5FB064A2D
:10059000536823F0E06343F00073536003B05DF8E9
:1005A00004FB00BF001002400000014000B589B00C
:1005B00001460022192000F09FFB192000F0D4FB17
:1005C000144B9A6942F400629A619B6903F40063D8
:1005D0000193019B02A903A801F010F800F0FEFFAF
:1005E0000D4BA3FB00239B0C013B0C480C4A026003
:1005F00040F2E732C260436000230361836001F090
:1006000005FA18B1012009B05DF804FB034801F0B8
:10061000CDF8F8E70010024083DE1B43D808002025
:10062000002C0140FEE7FEE7FEE7FEE7FEE770472D
:1006300008B5024801F0F2F808BD00BFD808002054
:1006400070B50C461646002506E0AFF30080214643
:1006500001F8010B01350C46B542F6DB304670BDA2
:1006600070B50C461646002504E014F8010B04F0A2
:1006700091FD0135B542F8DB304670BD08B5034643
:100680000B4A126842B10A4A106803446A46934210
:1006900006D8074A136008BD054A06491160F2E70B
:1006A00004F002FE0C2303604FF0FF30F3E700BFBD
:1006B00020090020F82700204FF0FF3070474FF44A
:1006C00000534B60002070470120704700207047A6
:1006D0007047000000B587B0002302930393049392
:1006E00005930093019315484FF0804202604360E8
:1006F00083604FF6FF72C2600361836101F086F987
:1007000090B94FF48053029302A90C4801F0B6F956
:1007100068B90023009301936946084801F02EFA56
:1007200040B907B05DF804FBFFF7BCFEE9E7FFF74F
:10073000B9FEEEE7FFF7B6FEF3E700BF240900209D
:100740000368B3F1804F00D0704782B003F50433E3
:10075000DA6942F00102DA61DB6903F00103019317
:10076000019B02B07047000008B50A480A4B0360BD
:100770004FF4E133436000238360C36003610C22C4
:1007800042618361C36101F0BFFA00B908BDFFF7A0
:1007900089FEFBE76C0900200038014010B586B0E7
:1007A000002302930393049305930268174B9A4224
:1007B00001D006B010BD03F558439A6942F4804257
:1007C0009A619A6902F480420092009A9A6942F012
:1007D00004029A619B6903F004030193019B4FF4A7
:1007E000007302930223039303230593084C02A989
:1007F000204600F0C7FA4FF480630293002303936E
:10080000049302A9204600F0BDFAD2E70038014067
:100810000008014008B5074A136843F0100313604D
:10082000032000F057FA0F20FFF7C0FEFFF794FEF9
:10083000002008BD00200240034A1168034B1B78CA
:100840000B441360704700BFB4090020040000206F
:10085000014B1868704700BFB409002038B5044642
:10086000FFF7F6FF0546B4F1FF3F02D0044B1B78BB
:100870001C44FFF7EDFF401BA042FAD338BD00BF78
:10088000040000200368D86C7047000030B482B0C8
:100890000022019290F82420012A00F09180034662
:1008A000012280F824204A68062A2DD80468606B4B
:1008B00002EB8202053A4FF01F0C0CFA02FC20EA10
:1008C0000C000D6805FA02F2024362630A68092A05
:1008D0003AD91C68E06802EB42021E3A4FF0070C5E
:1008E0000CFA02FC20EA0C008D6805FA02F20243C1
:1008F000E2600A68103A012A36D90020002283F803
:10090000242002B030BC70470C2A0ED80568286B32
:1009100002EB8202233A1F24944020EA04000C6870
:1009200004FA02F202432A63D0E70568E86A02EBA0
:100930008202413A1F24944020EA04000C6804FA21
:1009400002F20243EA62C1E71C68206902EB42023C
:100950004FF0070C0CFA02FC20EA0C008D6805FA37
:1009600002F202432261C4E71A681648824205D0A7
:100970009A6A42F020029A620120BFE7906810F460
:10098000000F1BD1906840F4000090600A68102AA4
:1009900001D00020B2E70C4A12680C49A1FB0212F8
:1009A000920C02EB82025200019202E0019A013A9B
:1009B0000192019A002AF9D100209FE700209DE7CB
:1009C00002209EE7002401400000002083DE1B433C
:1009D00030B583B00023019303689A6812F0010FC9
:1009E00033D104469A6842F001029A60184B1B68A2
:1009F000184AA2FB03239B0C019302E0019B013BDD
:100A00000193019B002BF9D1FFF722FF05462368D4
:100A10009B6813F0010F16D1FFF71AFF431B022B3F
:100A2000F5D923689B6813F0010FF0D1A36A43F056
:100A30001003A362E36A43F00103E362002384F836
:100A40002430012002E0002000E0002003B030BD8F
:100A50000000002083DE1B4390F82430012B68D077
:100A600010B50446012380F82430FFF7B1FF0028B9
:100A70005BD1A36A23F4407323F0010343F4807332
:100A8000A36223682C4A934227D0A26A22F48012E0
:100A9000A2625A6812F4806F05D0A26A22F4405212
:100AA00042F48052A262A26A12F4805F2BD0E26A02
:100AB00022F00602E262002284F824206FF0020293
:100AC0001A6023689A6802F46022B2F5602F1DD084
:100AD0009A6842F480129A602AE0A2F58062526815
:100AE00012F4702FD1D0A26A42F48012A262134A8B
:100AF000526812F4806FD6D0A26A22F4405242F4B7
:100B00008052A262CFE70022E262D4E70A4A93420F
:100B100004D09A6842F4A0029A6009E0A2F58062CB
:100B2000526812F4702FD3D1F3E7002384F82430F5
:100B300010BD0220704700BF002801400024014082
:100B400038B503689A6812F0010F01D1002038BD52
:100B500004469A6822F001029A60FFF779FE054682
:100B600023689B6813F0010F13D0FFF771FE431B3E
:100B7000022BF5D923689B6813F0010FF0D0A36A0C
:100B800043F01003A362E36A43F00103E362012030
:100B9000DDE70020DBE7000000287BD070B50446CD
:100BA000836A002B4DD02046FFF7CAFFA36A13F0DB
:100BB000100369D1002867D1A26A22F4885222F07A
:100BC000020242F00202A2626268E1690A43217BEA
:100BD00042EA4102A568B5F5807F02D0012D36D0EA
:100BE0001D46267D012E35D02668716821F46941A5
:100BF000294371602568AE68274931401143A960D7
:100C0000A168B1F5807F01D0012902D12369013BA0
:100C10001B052568E96A21F470010B43EB62236828
:100C200099681E4B0B409A4225D0A36A23F0120309
:100C300043F01003A362E36A43F00103E36201207F
:100C400027E0C36280F82430FFF752FBABE74FF494
:100C50008075C6E731B9A169013945EA413141F4EE
:100C60000065C1E7A16A41F02001A162E16A41F09B
:100C70000101E162B8E70023E362A36A23F0030302
:100C800043F00103A36204E0A36A43F01003A362EC
:100C9000012070BD01207047FDF7E1FFFE0E1FFF30
:100CA00090F82430012B13D010B50446012380F8AE
:100CB0002430FFF745FF38B9A36A23F4885323F0A3
:100CC000010343F00103A362002384F8243010BD24
:100CD00002207047074AD36823F4E0631B041B0C0F
:100CE000000200F4E060034343F0BF6343F40033C9
:100CF000D360704700ED00E000B5194BDB68C3F32B
:100D00000223C3F1070CBCF1040F28BF4FF0040C01
:100D100003F1040EBEF1060F18D9033B4FF0FF3E5E
:100D20000EFA0CFC21EA0C0199400EFA03F322EAB8
:100D30000303194300280BDB0901C9B200F160402D
:100D400000F5614080F800135DF804FB0023E5E73F
:100D500000F00F000901C9B2024B1954F4E700BFBB
:100D600000ED00E014ED00E0002807DB00F01F02BA
:100D7000400901239340024A42F82030704700BFE7
:100D800000E100E070B582B00024A446A6E0804DEA
:100D9000AA4210D007D97F4DAA420CD005F5803564
:100DA000AA4208D013E0A5F58015AA4203D005F5A4
:100DB0007025AA4207D18A68002A58D0012A51D04A
:100DC0004361082403E0A5F58015AA42F3D0BEF1E3
:100DD000FF0F4ED80646BEF1FF0F4CD84FEA8C02EB
:100DE00033680F25954023EA050304FA02F2134302
:100DF00033604B6813F0805F6ED0674B9A6942F0A6
:100E000001029A619B6903F001030193019B4FEA80
:100E10009C02951C614B53F825600CF003039D0068
:100E20000F23AB4026EA03065D4B984229D003F519
:100E30008063984200F08E8003F58063984200F052
:100E40008B8003F58063984219D004231AE0CC68A4
:100E5000BDE7CC680434BAE7CC680834B7E7CC689F
:100E60000C34B4E703610824B1E70024AFE704249D
:100E7000ADE7061DAFE7ACF108029200B0E703232F
:100E800000E00023AB4033430232444D45F82230AA
:100E90004B6813F4801F61D0424A936843EA0E0303
:100EA00093604B6813F4001F5ED03E4AD36843EA58
:100EB0000E03D3604B6813F4003F5BD0394A53688C
:100EC00043EA0E0353604B6813F4803F58D0354A11
:100ED000136843EA0E0313600CF1010C0A6832FA3E
:100EE0000CF353D0012303FA0CF302EA030E33EAA6
:100EF0000202F1D14A68122A3FF649AF122A3FF6A0
:100F000066AF01A555F822F0B70D00084F0E000896
:100F1000590E00086B0E0008CF0D0008CF0D000819
:100F2000CF0D0008CF0D0008CF0D0008CF0D000831
:100F3000CF0D0008CF0D0008CF0D0008CF0D000821
:100F4000CF0D0008CF0D0008CF0D0008530E00088C
:100F50005F0E0008012395E7022393E7114A936887
:100F600023EA0E0393609CE70E4AD36823EA0E033C
:100F7000D3609FE70B4A536823EA0E035360A2E74E
:100F8000084A136823EA0E031360A5E702B070BD98
:100F9000000022100000311000100240000001404B
:100FA00000080140000401400AB1016170470904D2
:100FB0000161704782B0084B1B68084AA2FB0323FB
:100FC0005B0A00FB03F3019300BF019B5A1E0192D1
:100FD000002BF9D102B0704700000020D34D621001
:100FE000002800F0F18170B582B00446036813F068
:100FF000010F2CD0994B5B6803F00C03042B1DD020
:10100000964B5B6803F00C03082B12D06368B3F5B2
:10101000803F41D0002B55D103F1804303F50433C9
:101020001A6822F480321A601A6822F480221A6048
:1010300037E08A4B5B6813F4803FE7D0874B1B682F
:1010400013F4003F03D06368002B00F0BF812368D6
:1010500013F0020F75D0814B5B6813F00C0F5FD05B
:101060007E4B5B6803F00C03082B54D02369002BE4
:1010700000F08A807A4B01221A60FFF7E9FB0546EF
:10108000764B1B6813F0020F75D1FFF7E1FB401B95
:101090000228F5D903209EE1704A136843F4803397
:1010A0001360636843B3FFF7D3FB05466B4B1B68C4
:1010B00013F4003FCBD1FFF7CBFB401B6428F5D9DD
:1010C000032088E1B3F5A02F09D0644B1A6822F4FD
:1010D00080321A601A6822F480221A60E1E703F174
:1010E0008043A3F53C331A6842F480221A601A68E0
:1010F00042F480321A60D4E7FFF7AAFB0546574B4B
:101100001B6813F4003FA2D0FFF7A2FB401B64282A
:10111000F5D903205FE1514B5B6813F4803FA5D103
:101120004E4B1B6813F0020F03D02369012B40F0D4
:101130004F814A4A136823F0F803616943EAC10307
:101140001360236813F0080F33D0A369002B5CD021
:10115000434B0122C3F88024FFF77AFB05463F4B3F
:101160005B6A13F0020F21D1FFF772FB401B0228CC
:10117000F5D903202FE1394A136823F0F803616998
:1011800043EAC1031360DCE7354B00221A60FFF726
:101190005FFB0546314B1B6813F0020FD1D0FFF700
:1011A00057FB401B0228F5D9032014E10120FFF76B
:1011B00001FF236813F0040F00F09680274BDB69D2
:1011C00013F0805F34D1254BDA6942F08052DA6146
:1011D000DB6903F080530193019B0125214B1B68C0
:1011E00013F4807F26D0E368012B3DD0002B53D130
:1011F00003F1804303F504331A6A22F001021A62F4
:101200001A6A22F004021A6233E0154B0022C3F876
:101210008024FFF71DFB0546104B5B6A13F0020F9D
:10122000C7D0FFF715FB401B0228F5D90320D2E0F9
:101230000025D3E70B4A136843F480731360FFF76C
:1012400007FB0646074B1B6813F4807FCBD1FFF7E3
:10125000FFFA801B6428F5D90320BCE0001002408F
:1012600000004242007000405F4A136A43F00103ED
:101270001362E36833B3FFF7EBFA06465A4B1B6A77
:1012800013F0020F2FD1FFF7E3FA801B41F28833EE
:101290009842F3D903209EE0052B09D0524B1A6ADD
:1012A00022F001021A621A6A22F004021A62E0E7CE
:1012B0004D4B1A6A42F004021A621A6A42F00102A5
:1012C0001A62D6E7FFF7C4FA0646474B1B6A13F0CB
:1012D000020F08D0FFF7BCFA801B41F28833984216
:1012E000F3D9032077E0E5B9E369002B72D03E4AD9
:1012F000526802F00C02082A56D0022B17D03B4B42
:1013000000221A66FFF7A4FA0446374B1B6813F055
:10131000007F47D0FFF79CFA001B0228F5D9032075
:1013200059E0314AD36923F08053D361DCE72F4B76
:1013300000221A66FFF78CFA05462B4B1B6813F048
:10134000007F06D0FFF784FA401B0228F5D903205E
:1013500041E0236AB3F5803F1AD023494B6823F458
:101360007413226A606A024313434B601F4B0122CD
:101370001A66FFF76DFA04461B4B1B6813F0007FDB
:101380000ED1FFF765FA001B0228F5D9032022E0F1
:10139000154A536823F40033A1680B435360DCE71C
:1013A000002018E0002016E0012B16D00E4B5B68E1
:1013B00003F48031226A914211D103F47013626AFE
:1013C00093420ED1002006E001207047012002E088
:1013D000012000E0002002B070BD0120FBE70120E9
:1013E000F9E70120F7E700BF001002400000424289
:1013F0000F4B5B6803F00C02082A01D00D487047C0
:10140000C3F383420C49885C13F4803F0BD0084B34
:101410005B68C3F34043094AD35C064A02FB00F011
:10142000B0FBF3F07047064B03FB00F0704700BFC2
:101430000010024000127A00986D0008A86D0008A4
:1014400000093D00002800F0A08070B50D4604465C
:10145000524B1B6803F007038B420BD24F4A1368B1
:1014600023F007030B431360136803F007038B4259
:1014700040F08D80236813F0020F17D013F0040F93
:1014800004D0474A536843F4E0635360236813F081
:10149000080F04D0424A536843F460535360404AF3
:1014A000536823F0F003A1680B435360236813F0E3
:1014B000010F31D06368012B20D0022B25D0384A90
:1014C000126812F0020F64D035494A6822F0030214
:1014D00013434B60FFF7BCF90646314B5B6803F0E2
:1014E0000C036268B3EB820F16D0FFF7B1F9801BD3
:1014F00041F288339842F0D9032045E0284A126827
:1015000012F4003FE0D101203EE0254A126812F0BB
:10151000007FD9D1012037E0204B1B6803F007037F
:10152000AB420AD91D4A136823F007032B4313600B
:10153000136803F00703AB422DD1236813F0040FA7
:1015400006D0174A536823F4E063E1680B43536005
:10155000236813F0080F07D0114A536823F460532F
:10156000216943EAC1035360FFF742FF0C4B5B68FC
:10157000C3F303130B4AD35CD8400B4B18600B4BDF
:101580001868FFF713F8002070BD01207047012094
:10159000FAE70120F8E70120F6E700BF002002404B
:1015A00000100240806D00080000002008000020AC
:1015B000014B1868704700BF0000002008B5FFF716
:1015C000F7FF044B5B68C3F30223034AD35CD840A4
:1015D00008BD00BF00100240906D000808B5FFF77D
:1015E000E7FF044B5B68C3F3C223034AD35CD840D4
:1015F00008BD00BF00100240906D00080F2303607B
:101600000B4B5A6802F0030242605A6802F0F00283
:1016100082605A6802F4E062C2605B68DB0803F42F
:10162000E0630361034B1B6803F007030B60704723
:10163000001002400020024070B582B004460368EA
:1016400013F0010F36D03F4BDB6913F0805F49D1B7
:101650003C4BDA6942F08052DA61DB6903F0805377
:101660000193019B0125384B1B6813F4807F3BD00D
:10167000344B1B6A13F4407313D0626802F4407257
:101680009A420ED02F4A136A23F440702F49012644
:10169000C1F840640026C1F84064106213F0010FE5
:1016A00036D1284A136A23F4407361680B431362EE
:1016B000002D3ED1236813F0020F06D0214A536853
:1016C00023F44043A1680B435360236813F0100FC9
:1016D00034D01C4A536823F48003E1680B43536001
:1016E00000202CE00025BEE7174A136843F48073FE
:1016F0001360FFF7ADF80646134B1B6813F4807FA9
:10170000B6D1FFF7A5F8801B6428F5D9032016E0B1
:10171000FFF79EF806460B4B1B6A13F0020FC0D171
:10172000FFF796F8801B41F288339842F3D90320E3
:1017300005E0D36923F08053D361BBE7002002B0FA
:1017400070BD00BF00100240007000400000424227
:1017500010B4036A046A24F001040462846924F06A
:10176000F00C4CEA021223F00A030B43826103627D
:1017700010BC704710B4036A046A24F010040462B9
:10178000846924F4704C4CEA023223F0A00343EA4B
:1017900001138261036210BC7047836823F07003F9
:1017A0000B4343F0070383607047000090F83D301F
:1017B000DBB2012B27D1022380F83D300268D368C9
:1017C00043F00103D3600368114A934210D0B3F190
:1017D000804F0DD0A2F59432934209D002F5806279
:1017E000934205D01A6842F001021A600020704747
:1017F0009A6802F00702062A07D01A6842F001022E
:101800001A6000207047012070470020704700BF19
:10181000002C0140704770477047704710B5044670
:1018200003681A6912F0020F11D0DA6812F0020F81
:101830000DD06FF002021A610123037703689B69E0
:1018400013F0030F70D0FFF7E6FF00232377236820
:101850001A6912F0040F12D0DA6812F0040F0ED0D9
:101860006FF004021A610223237723689B6913F443
:10187000407F5FD02046FFF7CEFF00232377236809
:101880001A6912F0080F12D0DA6812F0080F0ED0A1
:101890006FF008021A61042323772368DB6913F0D1
:1018A000030F4ED02046FFF7B6FF002323772368AF
:1018B0001A6912F0100F12D0DA6812F0100F0ED061
:1018C0006FF010021A61082323772368DB6913F491
:1018D000407F3DD02046FFF79EFF002323772368FB
:1018E0001A6912F0010F03D0DA6812F0010F36D135
:1018F00023681A6912F0800F03D0DA6812F0800FA3
:1019000034D123681A6912F0400F03D0DA6812F05C
:10191000400F32D123681A6912F0200F03D0DA6821
:1019200012F0200F30D110BDFFF774FF2046FFF7F3
:1019300073FF8AE72046FFF76DFF2046FFF76CFF35
:101940009BE72046FFF766FF2046FFF765FFACE701
:101950002046FFF75FFF2046FFF75EFFBDE76FF011
:1019600001021A612046FEF791FDC1E76FF0800287
:101970001A61204600F039F9C3E76FF040021A619E
:101980002046FFF74AFFC5E76FF020021A612046A4
:1019900000F02AF9C7E7000003681B4A90420AD00A
:1019A000B0F1804F07D0A2F59432904203D002F5F7
:1019B0008062904203D123F070034A681343124AB5
:1019C00090420AD0B0F1804F07D0A2F594329042F5
:1019D00003D002F58062904203D123F44073CA68B9
:1019E000134323F080034A69134303608B68C36287
:1019F0000B688362044B984202D001234361704715
:101A00000B690363F9E700BF002C014040B310B538
:101A1000044690F83D30F3B1022384F83D3021466E
:101A200051F8040BFFF7B8FF012384F8463084F81F
:101A30003E3084F83F3084F8403084F8413084F8F8
:101A4000423084F8433084F8443084F8453084F8D8
:101A50003D30002010BD80F83C30FEF771FEDBE722
:101A60000120704710B4846824F47F4C42EA0322BA
:101A70000A4342EA0C02826010BC704790F83C3086
:101A8000012B78D010B50446012380F83C300223A6
:101A900080F83D300268936823F47F4323F0770396
:101AA00093600B68602B4CD029D8402B54D00CD9B4
:101AB000502B22D1CA6849680068FFF749FE5021BF
:101AC0002068FFF76AFE002005E0202B0DD009D921
:101AD000302B0AD00120012384F83D30002384F804
:101AE0003C3010BD0BB1102B05D119462068FFF713
:101AF00054FE0020EFE70120EDE70120EBE7B3F50E
:101B0000805F34D0B3F5005F0CD1CB684A68896838
:101B10000068FFF7A7FF2268936843F4804393604F
:101B20000020D8E7702B24D1CB684A688968006808
:101B3000FFF798FF2268936843F0770393600020D3
:101B4000C9E7CA6849680068FFF714FE6021206889
:101B5000FFF723FE0020BEE7CA6849680068FFF768
:101B6000F7FD40212068FFF718FE0020B3E70020B2
:101B7000B1E70120AFE702207047000090F83C3049
:101B8000012B2CD010B4012380F83C30022380F8C4
:101B90003D3003685A689C6822F0700C0A6842EA7B
:101BA0000C025A6003680F4A93420AD0B3F1804F87
:101BB00007D0A2F59432934203D002F5806293429B
:101BC00004D124F080044A6814439C60012380F807
:101BD0003D30002380F83C30184610BC704702208E
:101BE000704700BF002C01407047704710B5044695
:101BF0000268136923F44053C1680B43136183687F
:101C00000269134342691A430168CB6823F4B05355
:101C100023F00C031343CB600268536923F4407331
:101C200081690B4353610268134B9A4220D0FFF73E
:101C3000C5FC024602EB820202EB820263689B0053
:101C4000B2FBF3F20D48A0FB02314909642303FB08
:101C500011231B013233A0FB03235B0903F0F002C5
:101C600002EB011203F00F03216813448B6010BDD7
:101C7000FFF7B4FC0246DDE7003801401F85EB5159
:101C80002DE9F84305460F4616469946DDF82080B3
:101C90002C68246837EA04030CBF4FF0010C4FF0A6
:101CA000000CB4452DD1B8F1FF3FF1D0B8F1000FD1
:101CB00005D0FEF7CDFDA0EB09004045E8D92A6824
:101CC00002F10C0353E8003F23F4D0730C3242E8D6
:101CD00000310029F3D12A6802F1140353E8003FD0
:101CE00023F00103143242E800310029F3D120230C
:101CF00085F8413085F84230002385F840300320D4
:101D000000E00020BDE8F88360B310B5044690F809
:101D1000413013B3242384F841302268D36823F47C
:101D20000053D3602046FFF761FF2268136923F454
:101D3000904313612268536923F02A035361226898
:101D4000D36843F40053D36000206064202384F8F8
:101D5000413084F84230606310BD80F84030FEF7B7
:101D60001DFDD7E7012070472DE9F04182B01E46E6
:101D700090F84130DBB2202B4BD104460D46904603
:101D800000294AD00AB9012044E0002343642123FA
:101D900080F84130FEF75CFD0746A4F82480A4F8E3
:101DA0002680A368B3F5805F02D04FF000080FE0F3
:101DB0002369FBB14FF000080AE038F8023B2268C3
:101DC000C3F308035360E28C92B2013A92B2E28408
:101DD000E38C9BB28BB100963B46002280212046CB
:101DE000FFF74EFFD8B9002DE7D015F8012B236877
:101DF0005A60E8E7A8460025EAE700963B4600223D
:101E000040212046FFF73CFF58B9202384F8413099
:101E100000E0022002B0BDE8F0810120FAE70320D3
:101E2000F8E70320F6E70000EFF3058393B9EFF33B
:101E3000108393B90C4B1868022804D080B90A4B60
:101E400001221A607047EFF31183002BF6D06FF078
:101E5000050070476FF0050070476FF00500704790
:101E60004FF0FF30704700BF140C002008B5EFF3AF
:101E70000583B3B9EFF31083B3B90E4B1B68022B84
:101E800008D0012B13D10B4B02221A6001F0D0F8BD
:101E9000002008BDEFF31182002AF2D06FF0050098
:101EA000F7E76FF00500F4E76FF00500F1E74FF09A
:101EB000FF30EEE7140C0020F0B587B00024049446
:101EC000EFF30584002C43D1EFF31083002B3FD1B7
:101ED000334B1B68022B16D0002839D000238DF815
:101EE000173062B3156895B1936903B918235C1E66
:101EF000372C51D8546814F0010F4FD156694EB1A8
:101F00004FEA960C08E0EFF311830BBBE4E70DF109
:101F10001705E9E74FF0800C94682CB1D7685B2F68
:101F200002D9176907B1B6B914B14FF0FF340CE00C
:101F3000D46894B914699CB14FF0FF3405E00024D3
:101F400018234FF0800C0DF11705012C0AD0ACB10D
:101F5000049807B0F0BD0124F7E74FF0FF34F4E731
:101F60000024F2E7146992680292019400930B46F0
:101F70006246294600F0EEFF0490E9E704AA0192C8
:101F800000930B461FFA8CF2294601F01DF8012838
:101F9000DED000230493DBE70020DAE70020D8E757
:101FA000140C002008B5EFF30583A3B9EFF31083F9
:101FB000A3B90C4B1B68022B02D040B9002008BD0E
:101FC000EFF31183002BF8D06FF00500F7E701F075
:101FD00093F90020F3E76FF00500F0E76FF00500DC
:101FE000EDE700BF140C0020034B0360034B0B60B4
:101FF00080231360704700BFB80B0020B809002091
:10200000034B0360034B0B604FF480731360704706
:1020100018100020180C002000F1080343604FF056
:10202000FF328260C36003610023036070470023B6
:102030000361704743684B609A688A605160996099
:102040000861036801330360704730B40D68B5F16F
:10205000FF3F11D000F108031C465B681A68AA42D2
:10206000FAD963684B6099608C60616008610368AD
:102070000133036030BC70470469F2E703694168CB
:1020800082688A60416851605A68824206D00022A4
:1020900002611A68013A1A601868704782685A60CB
:1020A000F5E7000082B0002301930D4B1B68B3F1EC
:1020B000FF3F08D04FF0500383F31188BFF36F8FB9
:1020C000BFF34F8FFEE74FF0500383F31188BFF348
:1020D0006F8FBFF34F8F019B002BFCD002B0704776
:1020E0000C00002006480068006880F3088862B68B
:1020F00061B6BFF34F8FBFF36F8F00DF00BF0000EB
:1021000008ED00E04FF0807340F8043C21F001013D
:1021100040F8081C034B40F80C3C40F8202C403899
:10212000704700BFA520000800000000000000006C
:10213000074B19680868B0E8F00F80F30988BFF30F
:102140006F8F4FF0000080F311884EF00D0E704736
:10215000D41C00204FF0500383F31188BFF36F8F1E
:10216000BFF34F8F0B4A136801331360012B00D06C
:1021700070474FF0E023D3F8043D13F0FF0FF7D082
:102180004FF0500383F31188BFF36F8FBFF34F8F6E
:10219000FEE700BF0C000020094B1B6843B94FF05D
:1021A000500383F31188BFF36F8FBFF34F8FFEE7A8
:1021B000013B034A13600BB983F31188704700BFDA
:1021C0000C000020000000000000000000000000E3
:1021D000EFF30980BFF36F8F0D4B1A6820E9F00F02
:1021E00010602DE908404FF0500080F3118801F095
:1021F000A9F84FF0000080F31188BDE80840196885
:102200000868B0E8F00F80F30988BFF36F8F70475C
:10221000D41C002008B54FF0500383F31188BFF39E
:102220006F8FBFF34F8F00F05FFF28B14FF0E023B7
:102230004FF08052C3F8042D002383F3118808BDAA
:102240004FF0E022002313619361054B1B680549A1
:10225000A1FB03139B09013B5361072313617047E3
:1022600000000020D34D621010B582B02A4B1A78BE
:10227000D2B20192FF221A701B78DBB28DF80330C4
:102280009DF8033003F05003244A1370244B0722B7
:102290001A6009E0224A1368013B13609DF803307D
:1022A0005B00DBB28DF803309DF8033013F0800F34
:1022B000F0D11B4B1B68032B08D04FF0500383F366
:1022C0001188BFF36F8FBFF34F8FFEE71B02144AD5
:1022D000136003F4E0631360019BDBB20E4A1370DA
:1022E0004FF0E023D3F8202D42F47002C3F8202DE4
:1022F000D3F8202D42F07042C3F8202DFFF7A0FF45
:102300000024084B1C60FFF7EDFE01F01BF8FFF7FF
:10231000C9FE204602B010BD00E400E074100020A9
:10232000781000200C000020EFF305830F2B0FD94D
:10233000114A9B5CDBB2114A12789A4208D94FF0DD
:10234000500383F31188BFF36F8FBFF34F8FFEE706
:102350004FF0E023D3F80C3D03F4E063084A126821
:10236000934208D94FF0500383F31188BFF36F8F66
:10237000BFF34F8FFEE77047F0E300E074100020DA
:1023800078100020124A12F0070F1ED0D11D21F044
:102390000701C1F5406313440A460E48026000215C
:1023A00041601344083B23F007030B480360596066
:1023B0001960991A51601360084B1960084B196035
:1023C000084B4FF000421A6070474FF44063E4E757
:1023D000801000208C1C00207C100020881C002015
:1023E000841C0020801C0020154B1A461B68834269
:1023F000FBD3516802EB010C844509D0416800EB26
:10240000010C634509D00360904218D010607047FA
:102410004068014451601046F0E710B4094C24684C
:10242000A3420AD05B681944416013681B680360CB
:10243000904200D0106010BC70470460F8E770470D
:102440008C1C00207C10002070B5054600F03EFE7C
:10245000344B1B68A3B1344B1B681D424AD135B1C4
:10246000083515F0070F02D025F007050835002DB7
:1024700042D02E4B1B68AB424DD32D4A146804E06A
:10248000FFF780FFE7E722461C466368AB4202D2B3
:102490002368002BF7D1234B1B68A3423DD016685D
:1024A00008362368136063685B1B102B10D9601912
:1024B00010F0070F08D04FF0500383F31188BFF3DB
:1024C0006F8FBFF34F8FFEE743606560FFF78CFFB0
:1024D000626816490B689B1A0B60164909688B42A3
:1024E00001D214490B60104B1B6813436360002337
:1024F000236002E0002600E0002600F081FE16F0D6
:10250000070F0CD04FF0500383F31188BFF36F8F88
:10251000BFF34F8FFEE70026EFE70026EDE73046DA
:1025200070BD00BF7C100020801C0020841C002097
:102530008C1C0020881C002080B338B50446A0F114
:10254000080550F8043C164A1268134208D14FF0AF
:10255000500383F31188BFF36F8FBFF34F8FFEE7F4
:1025600050F8081C41B14FF0500383F31188BFF3BA
:102570006F8FBFF34F8FFEE723EA020340F8043C5E
:1025800000F0A4FD54F8041C064A13680B441360C1
:102590002846FFF729FF00F033FE38BD704700BF23
:1025A000801C0020841C002010B50446FFF7D2FDDB
:1025B000A26BE36B9A4204D00024FFF7EDFD2046A6
:1025C00010BD0124F9E710B50446FFF7C3FDA36B66
:1025D00023B90124FFF7E0FD204610BD0024F9E7F0
:1025E00070B504461546866B026C5AB903681BB178
:1025F00000200136A66370BD406800F0CBFF0023C9
:102600006360F6E76DB98068FDF7A2FD226CA368F0
:102610001344A3606268934219D32368A3602846D9
:10262000E7E7C068FDF794FD226C5142E3689B1A0E
:10263000E3602268934202D263680B44E360022D98
:1026400001D00020D5E726B1013E0020D1E7284681
:10265000CFE70020CDE708B50346026C62B108461B
:10266000D9681144D960D3F804C0614501D3196811
:10267000D960D968FDF76CFD08BD38B50546FFF790
:1026800069FD95F8454064B201E0013C64B2002C5C
:102690000ADD6B6A43B105F1240000F0D1FE002889
:1026A000F3D000F061FFF0E7FF2385F84530FFF736
:1026B00073FDFFF74FFD95F8444064B201E0013C23
:1026C00064B2002C0ADD2B6943B105F1100000F063
:1026D000B7FE0028F3D000F047FFF0E7FF2385F8AE
:1026E0004430FFF759FD38BD38B5E0B10D4604461A
:1026F000FFF730FD2368E26B216C01FB0230606064
:102700000020A063A360013A02FB0133E360FF23D2
:1027100084F8443084F84530FDB9236963B9FFF784
:102720003BFD012038BD4FF0500383F31188BFF308
:102730006F8FBFF34F8FFEE704F1100000F080FEB3
:102740000028ECD04FF0E0234FF08052C3F8042D66
:10275000BFF34F8FBFF36F8FE1E704F11000FFF776
:102760005BFC04F12400FFF757FCD8E738B51D46A1
:10277000049C0B4649B92460E06323640121204690
:10278000FFF7B2FF84F84C5038BD2260F4E740B93F
:102790004FF0500383F31188BFF36F8FBFF34F8F58
:1027A000FEE710B584B01C46844653B192B189B996
:1027B0004FF0500383F31188BFF36F8FBFF34F8F38
:1027C000FEE74FF0500383F31188BFF36F8FBFF321
:1027D0004F8FFEE76AB150230393039B502B13D016
:1027E0004FF0500383F31188BFF36F8FBFF34F8F08
:1027F000FEE70029EFD04FF0500383F31188BFF3B9
:102800006F8FBFF34F8FFEE7012384F846300094AB
:102810009DF818306046FFF7A9FF204604B010BDB0
:10282000F0B585B0019288B10F461D460446B1B19E
:10283000022D20D1E36B012B1DD04FF0500383F309
:102840001188BFF36F8FBFF34F8FFEE74FF0500338
:1028500083F31188BFF36F8FBFF34F8FFEE7036CD5
:10286000002BE5D04FF0500383F31188BFF36F8F37
:10287000BFF34F8FFEE700F07DFE064658B9019B7F
:10288000002B48D04FF0500383F31188BFF36F8FB4
:10289000BFF34F8FFEE700263DE02A46394620462B
:1028A000FFF79EFE636A7BB948B14FF0E0234FF01B
:1028B0008052C3F8042DBFF34F8FBFF36F8FFFF724
:1028C0006BFC012005B0F0BD04F1240000F0B8FD60
:1028D0000028F4D04FF0E0234FF08052C3F8042DCD
:1028E000BFF34F8FBFF36F8FE9E7FFF755FC002071
:1028F000E8E702A800F0EAFD012619E0002384F8C9
:10290000443021E0002384F8453023E02046FFF7DF
:10291000B4FE00F075FCFFF71DFCA26BE36B9A425E
:10292000BBD3022DB9D0019B002BDED0002EE0D00E
:10293000FFF732FC00F0CAFBFFF70CFC94F84420D0
:1029400052B2B2F1FF3FD9D094F8452052B2B2F161
:10295000FF3FD7D0FFF720FC01A902A800F0C2FD7D
:10296000D8B92046FFF720FE0028CFD0019904F106
:10297000100000F031FD2046FFF77FFE00F040FC24
:102980000028C8D14FF0E0234FF08052C3F8042D47
:10299000BFF34F8FBFF36F8FBDE72046FFF76DFE8C
:1029A00000F02EFC00208DE72DE9F84390B10F4692
:1029B00016461C460546B1B1022C20D1EB6B012B0B
:1029C0001DD04FF0500383F31188BFF36F8FBFF317
:1029D0004F8FFEE74FF0500383F31188BFF36F8FE3
:1029E000BFF34F8FFEE7036C002BE5D04FF0500391
:1029F00083F31188BFF36F8FBFF34F8FFEE7FFF7AD
:102A000093FCEFF311894FF0500383F31188BFF368
:102A10006F8FBFF34F8FAA6BEB6B9A4206D3022CDA
:102A200004D0002089F31188BDE8F88395F845802B
:102A30004FFA88F8224639462846FFF7D1FDB8F10B
:102A4000FF3F06D008F101035BB285F84530012055
:102A5000E8E76B6A0BB90120E4E705F1240000F018
:102A6000EFFC18B126B101203060DBE70120D9E787
:102A70000120D7E7F0B585B0019290B10F4604462A
:102A8000C1B100F077FD064600BB019B002B5ED074
:102A90004FF0500383F31188BFF36F8FBFF34F8F55
:102AA000FEE74FF0500383F31188BFF36F8FBFF33E
:102AB0004F8FFEE7036C002BE3D04FF0500383F3FE
:102AC0001188BFF36F8FBFF34F8FFEE700263EE004
:102AD00039462046FFF7BFFD013DA563236923B9B1
:102AE000FFF75AFB012005B0F0BD04F1100000F023
:102AF000A7FC0028F4D04FF0E0234FF08052C3F839
:102B0000042DBFF34F8FBFF36F8FE9E7FFF744FB4F
:102B10000020E8E702A800F0D9FC012621E000230C
:102B200084F8443029E0002384F845302BE0204627
:102B3000FFF7A3FD00F064FB09E02046FFF79DFDD1
:102B400000F05EFB2046FFF73EFD00283FD1FFF777
:102B500001FBA56B002DBBD1019B002BD6D0002E15
:102B6000D8D0FFF719FB00F0B1FAFFF7F3FA94F8A9
:102B700044305BB2B3F1FF3FD1D094F845305BB243
:102B8000B3F1FF3FCFD0FFF707FB01A902A800F088
:102B9000A9FC0028D1D12046FFF715FD0028C6D09A
:102BA000019904F1240000F017FC2046FFF765FDB1
:102BB00000F026FB0028CAD14FF0E0234FF08052EE
:102BC000C3F8042DBFF34F8FBFF36F8FBFE7002013
:102BD00089E700000023072B0CD8074A52F833205E
:102BE0000AB10133F7E7044A42F8331002EBC3039A
:102BF00058607047704700BF941C002070B50446B1
:102C00000D461646FFF7A6FA94F844305BB2B3F1CE
:102C1000FF3F0DD094F845305BB2B3F1FF3F0BD0CE
:102C2000FFF7BAFAA36B5BB12046FFF726FD70BD34
:102C3000002384F84430EDE7002384F84530EFE7C3
:102C40003246294604F1240000F0DEFBECE70000E8
:102C5000084B1B681B6823B9074B4FF0FF321A6003
:102C60007047044B1B68DB68DB685A68024B1A60CC
:102C7000704700BFD81C0020842100202DE9F047B8
:102C800080460D4617469946089EDDF824A00A9C0A
:102C90009200A521206B02F031FB236B07F18042EB
:102CA000013A03EB820727F007074FF0000CBCF155
:102CB0000F0F0BD815F80C2004EB0C0383F834200D
:102CC00015F80C3013B10CF1010CF0E7002384F877
:102CD0004330372E00D93726E662E66400252565A5
:102CE000201DFFF7A4F904F11800FFF7A0F92461F3
:102CF000C6F13806A6616462656584F858504A4694
:102D000041463846FFF7FEF92060BAF1000F01D0C6
:102D1000CAF80040BDE8F08738B5002407E004EBAE
:102D2000840293000E481844FFF776F90134372CDB
:102D3000F5D90C4D2846FFF76FF90B4C2046FFF7ED
:102D40006BF90A48FFF768F90948FFF765F9094880
:102D5000FFF762F9084B1D60084B1C6038BD00BFCF
:102D6000E01C0020582100206C2100208C21002034
:102D7000B8210020A4210020D81C0020DC1C002049
:102D800010B50446FFF7E6F9224A136801331360D1
:102D9000214B1B685BB1214B1B686BB91E4B1B6839
:102DA000DA6AE36A9A4207D81B4B1C6004E01A4BAC
:102DB0001C601368012B29D0194A13680133136072
:102DC0006364E06A174B1B68984201D9154B186081
:102DD00000EB8000211D144B03EB8000FFF72AF964
:102DE000FFF7DAF90D4B1B687BB10B4B1B68DA6AF6
:102DF000E36A9A4209D24FF0E0234FF08052C3F8C1
:102E0000042DBFF34F8FBFF36F8F10BDFFF784FF0B
:102E1000D2E700BF40210020D41C0020A0210020C8
:102E20005021002054210020E01C002010B5044651
:102E300090F8593063B1012B11D0022B0ED04FF016
:102E4000500383F31188BFF36F8FBFF34F8FFEE7FB
:102E5000006BFFF771FB2046FFF76EFB10BDFFF71D
:102E60006BFBFBE70F4B1B68D3B110B5FFF772F993
:102E70000D4BDB68DC68201DFFF700F90B4A136877
:102E8000013B1360074A1368013B1360FFF784F9A5
:102E90002046FFF7CBFF034B1B68002BE6D110BD8C
:102EA000704700BF44210020B821002040210020AD
:102EB00008B5FFF7D7FF074B1B68012BF9D94FF077
:102EC000E0234FF08052C3F8042DBFF34F8FBFF3C0
:102ED0006F8FEEE7E01C002070B504460D46174BDF
:102EE0001E68174B18680430FFF7C8F8B4F1FF3FAD
:102EF0000DD03444124B1B685C60A64210D9114BB4
:102F000018680F4B19680431FFF79FF870BD002D4A
:102F1000EFD00B4B196804310B48FFF78BF8F5E73E
:102F20000A4B1868064B19680431FFF78EF8084BF6
:102F30001B68A342EAD9064B1C60E7E7CC210020BE
:102F4000D41C0020DC1C0020A4210020D81C002060
:102F50008421002030B587B00B9C7CB10C9DB5B1AD
:102F60005C250495049D5C2D1AD04FF0500383F32B
:102F70001188BFF36F8FBFF34F8FFEE74FF0500301
:102F800083F31188BFF36F8FBFF34F8FFEE74FF0CE
:102F9000500383F31188BFF36F8FBFF34F8FFEE7AA
:102FA0000C9D2C63022485F859400024039402955B
:102FB00005AC01940A9C0094FFF760FE0C98FFF7A3
:102FC000DFFE059807B030BD2DE9F04385B0074618
:102FD000884614461E469000FFF736FA00B3814635
:102FE0005C20FFF731FA0546B0B1C0F83090E5B18A
:102FF000002385F85930039302950D9B01930C9B98
:1030000000933346224641463846FFF737FE2846AE
:10301000FFF7B6FE012005E04846FFF78DFAE6E728
:103020004FF0FF3005B0BDE8F0834FF0FF30F9E717
:1030300010B588B000240594069407AA06A905A82F
:10304000FEF7D2FF059B0293069B01930094234653
:10305000079A18491848FFF77DFF184B186040B1D0
:1030600000F04CFB012806D0B0F1FF3F18D008B0AB
:1030700010BD0020F6E74FF0500383F31188BFF333
:103080006F8FBFF34F8F0E4B4FF0FF321A600D4B17
:1030900001221A600C4B00221A60FFF7E5F8E6E700
:1030A0004FF0500383F31188BFF36F8FBFF34F8F3F
:1030B000FEE700BFAC6D0008B12E000880210020A3
:1030C00084210020A0210020CC210020024A136886
:1030D00001331360704700BF4C210020014B18687A
:1030E000704700BFCC210020F8B53A4B1B68002B7D
:1030F00064D1394B1D6801351D60C5B9374B1B685C
:103100001B6843B14FF0500383F31188BFF36F8FF7
:10311000BFF34F8FFEE7314A1168314B18681060DA
:103120001960304A136801331360FFF791FD2E4B8D
:103130001B68AB4238D900272C4B1B68DB6A03EBBA
:1031400083039A002A4B9B58012B3CD901273AE074
:103150000127224B1B681B6843B3204B1B68DB68AD
:10316000DC6863689D4226D3261D3046FEF786FF45
:10317000A36A1BB104F11800FEF780FFE36A1D4A41
:103180001268934201D91B4A136003EB83039A0030
:10319000314617481044FEF74DFFE26A134B1B6897
:1031A000DB6A9A42D4D2D4E70027D2E70E4B4FF025
:1031B000FF321A60C0E70C4A1360BDE70E4A13687D
:1031C0000133136000270D4B1B6803B101273846FC
:1031D000F8BD00BF4C210020CC210020D81C0020CD
:1031E000DC1C00208821002084210020D41C002029
:1031F000E01C00205421002048210020D021002084
:1032000038B5354B1B6843B94FF0500383F3118831
:10321000BFF36F8FBFF34F8FFEE7FEF79BFF2E4B81
:103220001A68013A1A601B68002B4FD12B4B1B68A0
:103230000BB900244BE00024294B1B681BB3284B1F
:10324000DB68DC6804F11800FEF718FF251D28462E
:10325000FEF714FFE06A234B1B68984201D9214B0B
:10326000186000EB800029461F4B03EB8000FEF73F
:10327000E1FEE26A1D4B1B68DB6A9A42DCD31C4B01
:1032800001221A60D8E70CB1FFF7E2FC194B1C6869
:1032900084B9174B1C68D4B14FF0E0234FF0805233
:1032A000C3F8042DBFF34F8FBFF36F8F01240EE0DF
:1032B000013C07D0FFF718FF0028F9D00C4B012282
:1032C0001A60F5E70B4B00221A60E2E70024FEF7D4
:1032D00063FF204638BD00BF4C2100204021002064
:1032E0008C21002054210020E01C0020D41C002050
:1032F000D02100204821002010B5A8B10446104B71
:103300001B6843B14FF0500383F31188BFF36F8FF5
:10331000BFF34F8FFEE7FFF7D9FE00212046FFF7EE
:10332000DBFDFFF76DFF48B94FF0E0234FF080520F
:10333000C3F8042DBFF34F8FBFF36F8F10BD00BFD5
:103340004C2100201F4B1B681BB11F4B01221A6030
:1033500070471D4B00221A601C4B1B6803EB830156
:103360008A001B498A585AB90BB1013BF6E74FF066
:10337000500383F31188BFF36F8FBFF34F8FFEE7C6
:1033800003EB830082000A4450684068506003EBFE
:10339000830C4FEA8C020832114488420BD003EBB5
:1033A000830291000A4A0A445268D168094A1160AE
:1033B000064A13607047406862469100044A0A4416
:1033C0005060ECE74C210020D02100205421002047
:1033D000E01C0020D41C002058B110B50C46094A4E
:1033E00011681831FEF731FE01212046FFF774FD08
:1033F00010BD4FF0500383F31188BFF36F8FBFF3FD
:103400004F8FFEE7D41C002038B570B10D4614462E
:103410000A4A11681831FEF70DFE0CB14FF0FF3566
:1034200021462846FFF758FD38BD4FF0500383F37F
:103430001188BFF36F8FBFF34F8FFEE7D41C0020BE
:1034400038B5C368DC6824B304F118052846FEF7D4
:1034500015FE184B1B682BBB251D2846FEF70EFEDC
:10346000E06A154B1B68984201D9134B186000EBBA
:1034700080002946114B03EB8000FEF7DBFDE26A7A
:103480000F4B1B68DB6A9A4211D901200D4B186063
:1034900038BD4FF0500383F31188BFF36F8FBFF334
:1034A0004F8FFEE729460848FEF7C4FDE7E70020F6
:1034B000EEE700BF4C21002054210020E01C00203A
:1034C000D41C0020D02100208C210020034B1B683D
:1034D0000360034B1B684360704700BF88210020D6
:1034E000CC210020D8B170B50C46054601B3FEF7DB
:1034F00031FE1B4B19686B68C81A2268B2F1FF3F96
:1035000027D0184E3668D5F800C0B44501D08B429C
:1035100024D9824215D80023236001241AE04FF0F9
:10352000500383F31188BFF36F8FBFF34F8FFEE714
:103530004FF0500383F31188BFF36F8FBFF34F8FAA
:10354000FEE75B1A134423602846FFF7BFFF002401
:1035500000E00024FEF720FE204670BD0124F9E7BC
:10356000CC21002088210020014B01221A607047E5
:10357000D0210020054B1B6833B1054B1B680BB1F4
:10358000002070470220704701207047A0210020D2
:103590004C21002000283BD038B504461E4B1B6848
:1035A000834208D04FF0500383F31188BFF36F8F2D
:1035B000BFF34F8FFEE7036D43B94FF0500383F322
:1035C0001188BFF36F8FBFF34F8FFEE7013B036599
:1035D000C16AC26C91421DD00BB1002038BD051DDF
:1035E0002846FEF74BFDE06CE062C0F13803A361B2
:1035F0000A4B1B68984201D9084B186000EB800009
:103600002946074B03EB8000FEF714FD0120E5E798
:10361000002070470020E1E7D41C00205421002046
:10362000E01C0020064B1A681368B3FA83F35B09A9
:10363000036013B9D368186870470020704700BF53
:10364000D421002008B54160006191420CD8D21A03
:1036500083699A4201D3012008BD011D094B1868F6
:10366000FEF7F3FC0020F7E79A4201D2994206D216
:10367000011D054B1868FEF7E8FC0020ECE701206F
:10368000EAE700BFD8210020D421002030B583B064
:10369000FEF760FD114B1B681BB1FEF77DFD03B00B
:1036A00030BD0F4D2846FEF7B7FC0E4C2046FEF706
:1036B000B3FC0D4B1D600D4B1C60002300930C4BA5
:1036C0000C4A10210A20FFF762F8044B186000280A
:1036D000E3D00949FFF77EFADFE700BFF8220020B8
:1036E0007C22002090220020D4210020D82100201C
:1036F000A8220020DC210020B46D000810B588B09D
:10370000FFF7C4FF124B1B68CBB10024059406944D
:1037100007AA06A905A8FEF773FC059B0293069B62
:103720000193022300932346079A0A490A48FFF7A8
:1037300011FC0A4B186010B1012008B010BD4FF009
:10374000500383F31188BFF36F8FBFF34F8FFEE7F2
:10375000F8220020BC6D00083D3A0008FC22002041
:10376000B8B19C4603461848006858B300B585B008
:1037700000910192029305291CDCFFF7FBFE022851
:1037800010D000231A4669460F480068FFF748F832
:1037900015E04FF0500383F31188BFF36F8FBFF331
:1037A0004F8FFEE70023069A694607480068FFF737
:1037B00037F804E0002362466946FFF7F5F805B0E4
:1037C0005DF804FB00207047F822002070B582B03D
:1037D0001A4B1B681A6852B3DB681E68DC68251D2B
:1037E0002846FEF74BFC636A20469847E369012BA5
:1037F000EED1A36933449E4207D263602461294617
:103800000E4B1868FEF721FCE2E7002100910B4601
:1038100032462046FFF7A4FF0028D9D14FF05003CD
:1038200083F31188BFF36F8FBFF34F8FFEE7044A16
:10383000106802490860136002B070BDD4210020F6
:10384000D821002038B50546FFF748FC0446074B51
:103850001B68834205D800232B60044B1C60204664
:1038600038BDFFF7B3FF01232B60F6E7A422002049
:1038700070B582B006460D4614490968C968CC681F
:10388000201DFEF7FBFBE169012904D0636A204695
:10389000984702B070BDA16933462A46314420469C
:1038A000FFF7D0FE0028F1D0002100910B463246F0
:1038B0002046FFF755FF0028E8D14FF0500383F36F
:1038C0001188BFF36F8FBFF34F8FFEE7D421002025
:1038D00070B582B006460C46FFF7F8FB01A8FFF76B
:1038E000B1FF019B2BBB05460CB9B0421AD22CB1DB
:1038F000124B1B681C68B4FA84F464092246711BDD
:103900000F4B1868FFF77AF9FFF77AFC98B94FF078
:10391000E0234FF08052C3F8042DBFF34F8FBFF365
:103920006F8F08E0FFF76CFC29463046FFF7A0FFD9
:1039300001E0FFF765FC02B070BD00BFD821002098
:10394000F822002010B588B002E0049B002B0FDAAB
:10395000002204A9384B1868FFF78CF8002869D0BA
:10396000049B002BF1DA07990698059B9847ECE732
:10397000069C636913B1201DFEF780FB03A8FFF7C7
:1039800061FF049B092BE3D801A252F823F000BF8A
:10399000B9390008B9390008B939000851390008A7
:1039A000FF390008253A0008B9390008B93900087C
:1039B00051390008FF390008059BA16902461944E6
:1039C0002046FFF73FFE0028C2D0636A2046984792
:1039D000E369012BBCD1A269002100910B46059837
:1039E00002442046FFF7BCFE0028B1D14FF050033F
:1039F00083F31188BFF36F8FBFF34F8FFEE70599F5
:103A0000A16131B10346024601442046FFF71AFE88
:103A10009EE74FF0500383F31188BFF36F8FBFF31E
:103A20004F8FFEE794F82C30002B91D12046FEF703
:103A300083FD8DE708B010BDF822002000B583B0EB
:103A400001A8FFF7EFFD0199FFF742FFFFF77AFFAB
:103A5000F6E7000030B583B0244C204600F0E2F8D1
:103A6000204600F0D7F9204600F0B3F915E01F4DCD
:103A70000F230093A3B220224021284600F034FBFC
:103A8000C820FCF7EBFE284600F0B0F9013C0C2CF6
:103A9000EDDC164800F0CBF908B11424F7E7134C1D
:103AA000204600F096F9124B0193402300938023A7
:103AB00000221146204600F038F9204600F096F921
:103AC0004FF4FA70FCF7CAFE204600F082F909496B
:103AD000204600F059FE084B1E220021204600F02F
:103AE00013FE204600F082F903B030BD0023002011
:103AF000D46D0008D4710008C46D000830B587B0DB
:103B0000002402940394049405940F4B9A6942F0A4
:103B100008029A619B6903F008030193019B0B4D16
:103B200022464FF440412846FDF73EFA4FF4404309
:103B300002930123039304940223059302A92846C8
:103B4000FDF720F907B030BD00100240000C014025
:103B500010B44FF0E02254690B4B1B6800FB03FCD0
:103B60009369002104E0E01A02441144614509D23E
:103B70001A464FF0E0239B699A42FAD0F3D9D21A41
:103B80001144F3E710BC70479423002008B528398E
:103B9000252940D8DFE801F013171515151B3F3F05
:103BA0003F3F3F3F3F3F3F3F3F3F3F3F3F3F3F3F25
:103BB0003F3F3F3F3F3F3F3F3F3F3F3F2331FFF7C7
:103BC0009DFF012008BD1046FCF748FEF9E7022AD8
:103BD00003D80520FFF7BCFFF3E70120FAE72AB975
:103BE0004FF400410E48FDF7DFF9EAE701224FF4F8
:103BF00000410B48FDF7D8F9E3E72AB94FF48041BB
:103C00000748FDF7D1F9DCE701224FF48041044871
:103C1000FDF7CAF9D5E7012380F82730D1E700BFC7
:103C2000000C014010B50446074B084A084900F053
:103C3000A9FA204601F06EFA0021204601F071FA3F
:103C4000204600F0C6F810BD8D3B00084B4D000823
:103C5000EC770008FCF73CFD0B480C490C4A0023AC
:103C600002E0D458C4500433C4188C42F9D3094A32
:103C7000094C002301E013600432A242FBD301F09F
:103C800019FBFCF753FC704700000020540800208B
:103C9000AC78000854080020F4270020FEE72DE946
:103CA000F04F83B007460E4691461D46DDF8308042
:103CB00090F892A0CB18541CA4B200949BB200F0D0
:103CC00041FE78B3BAFA8AFB4FEA5B1B012414E089
:103CD00087F892A00023009301234A4631463846D4
:103CE00000F092FD0136B6B2640014F0FF0402D178
:103CF00008F101080124013DADB28DB198F8003002
:103D00002342E5D197F89130002BEBD187F892B0A0
:103D1000009301234A463146384600F075FDE1E73D
:103D200087F892A003B0BDE8F08F2DE9F04782B08C
:103D30008246884614461F46BDF828500B9E03F164
:103D40000709C9F3CC0903EB010C53199BB200938B
:103D50001FFA8CF300F0F6FD60B90DE000963B46CB
:103D6000224641465046FFF79AFF4E440134A4B222
:103D7000013DADB2002DF1D102B0BDE8F08710B524
:103D800082B003681B7C446B03FB01F1C90089B25C
:103D900021440091002101F0A5F902B010BD2DE9E8
:103DA000F041064690F8387090F83950036893F85F
:103DB000118000242A4621463046FFF7E0FF0134F7
:103DC000E4B20135EDB2A74201D9A845F2D8BDE869
:103DD000F08108B503681B7C90F8382003FB02F2E1
:103DE000D2000021406B01F089FA08BD10B50446ED
:103DF000FFF7D5FF204601F09BF910BD10B5044632
:103E000080F83910036B1B689847236B5B6820466A
:103E1000984710BD10B5044690F8933023B900219F
:103E20002046FFF7EBFF10BDFFF7D3FFF7E738B5EC
:103E30000446FFF7B4FF94F8393094F838501D4425
:103E4000EDB223685B7CAB4208D994F8933053B948
:103E500029462046FFF7D2FF012038BD204601F059
:103E600067F90020F9E72046FFF7B3FFF0E72DE9F7
:103E7000F84380460F4691461C46BDF820609DF8E9
:103E8000245015F0010F0AD115F0020F16D115F0CC
:103E9000080F24D115F0040F32D1BDE8F883B21A0F
:103EA000591892B289B200F01CFDF21B04EB090113
:103EB00092B289B2404600F014FDE5E7A6EB090294
:103EC000E11B92B289B2404600F00BFDF21BA4EB5D
:103ED000090192B289B2404600F003FDD7E706EB34
:103EE0000902E11992B289B2404600F0FAFCBA190F
:103EF00004EB090192B289B2404600F0F2FCC9E736
:103F000006EB0902E11B92B289B2404600F0E9FCDF
:103F1000BA19A4EB090192B289B2404600F0E1FC63
:103F2000BBE72DE9F04F85B00390894692461E46C7
:103F30009DF838B0C3F1010424B2C3EBC3384FEA93
:103F400048080FFA88F8CDF804B000920B463246C4
:103F50000021FFF78CFF002501271AE0013EB6B2D1
:103F600008F102081FFA88F30FFA88F81C4424B2FB
:103F70000135ADB20237BBB23FB21C4424B2CDF81A
:103F800004B0CDF800A04B46324629460398FFF70F
:103F90006EFFB54202D2002CE0DAE9E705B0BDE8D9
:103FA000F08F2DE9F84380460C4617461D46BDF8B4
:103FB00020909DF8246016F0010F0AD116F0020F30
:103FC0001BD116F0080F2DD116F0040F3BD1BDE820
:103FD000F883531CA9EB020269189BB292B289B212
:103FE00000F077FC631CA9EB0402E9199BB292B2C2
:103FF00089B2404600F06DFCE0E77B1CA9EB0702AC
:10400000291B9BB292B289B2404600F062FC631C4D
:10401000A9EB0402E91B9BB292B289B2404600F0C0
:1040200058FCCEE77B1C29199BB24A4689B2404610
:1040300000F04FFC631CE9199BB24A4689B2404626
:1040400000F047FCC0E77B1C291B9BB24A4689B2A3
:10405000404600F03EFC631CE91B9BB24A4689B215
:10406000404600F036FCB2E72DE9F04F85B00390F2
:10407000894692461E469DF838B0C3F1010424B229
:10408000C3EBC3384FEA48080FFA88F8CDF804B0FC
:1040900000920B4632460021FFF783FF00250127DF
:1040A0001AE0013EB6B208F102081FFA88F30FFACF
:1040B00088F81C4424B20135ADB20237BBB23FB21E
:1040C0001C4424B2CDF804B0CDF800A04B463246D3
:1040D00029460398FFF765FFB54202D2002CE0DACB
:1040E000E9E705B0BDE8F08F2DE9F04182B08046E8
:1040F0000E4617461D46CB189BB2AC18A4B201332E
:10410000521B491B0134A4B200949BB292B289B2F3
:1041100000F018FC10B902B0BDE8F0819DF8203025
:1041200000932B463A4631464046FFF7FAFEF2E747
:104130002DE9F04182B080460E4617461D46CB1849
:104140009BB2AC18A4B20133521B491B0134A4B278
:1041500000949BB292B289B200F0F4FB10B902B0A5
:10416000BDE8F0819DF8203000932B463A46314659
:104170004046FFF779FFF2E70823037000487047D5
:104180009823002030B585B004460D4600931346B1
:10419000084A094900F0EEFF0DF10F00FFF7ECFFB0
:1041A00001460095054B9DF80F20204600F0C3FC0A
:1041B00005B030BD8D4E0008395000087149000827
:1041C000405C70474218435C507800EB032080B29B
:1041D00070470020704738B504460D460021284638
:1041E000FFF7EEFF207001212846FFF7E9FF60701E
:1041F00002212846FFF7E4FFA07003212846FFF7BD
:10420000DFFFE07004212846FFF7DAFF2071052167
:104210002846FFF7D5FF607106212846FFF7D0FF3B
:10422000A07107212846FFF7CBFFE071082128463F
:10423000FFF7C6FF207209212846FFF7C1FF607211
:104240000A212846FFF7BCFFA0720B212846FFF782
:10425000B7FFE0720C212846FFF7B2FF20730D2153
:104260002846FFF7ADFF60730E212846FFF7A8FF31
:10427000A0730F212846FFF7A3FFE0731021284603
:10428000FFF79EFF207411212846FFF79BFF6082F5
:1042900013212846FFF796FFA08215212846FFF735
:1042A00091FFE08238BD10B590F80CC00468227808
:1042B00042FA0CFE5FFA8EF20CEB0103DBB2072B25
:1042C0000DD9CCF1080C5FFA8CFC621C026062789C
:1042D00002FA0CF242EA0E02D2B2083BDBB24FF015
:1042E000FF3C0CFA01F1037322EA010010BD38B55E
:1042F000044600F160050166002380F86C3090F8F8
:1043000078102846FFF7CFFF84F86A0094F87910F8
:104310002846FFF7C8FF84F86B0094F8923084F8C1
:104320006E30B3FA83F35B0984F86F3038BD10B593
:104330000C46FFF7B8FF013CE4B2012303FA04F492
:10434000001B40B210BD012B08D0022B09D013B1C5
:10435000401A80B27047104480B27047084480B25F
:104360007047801A80B27047012B08D0022B09D009
:1043700013B1104480B27047084480B27047801A6D
:1043800080B27047401A80B270472DE9F04F89B073
:1043900006460C46079290F968305FFA83FB90F965
:1043A0006930DBB2039319E0059420E096F86E3093
:1043B00086F89230CDF80080BDF81430069930466A
:1043C00000F022FABC423DD3ABEB05052C44E4B22D
:1043D000039B0133DBB203934FF0000B96F96A5055
:1043E000EDB2A5EB0B07FFB2BC42DDD30597B6F8E3
:1043F00066A04FFA8BF19DF90C9096F870804346B9
:104400004A460491B6F86400FFF7AEFF06904346B3
:104410004A4604995046FFF796FF0246079B002B39
:10442000C4D196F86D30002BCCD196F86F3086F859
:104430009230CDF80080BDF814300699304600F077
:10444000E3F9BFE75C4486F8684086F8699009B0F4
:10445000BDE8F08F2DE9F04F85B0044600F160050E
:10446000FFF745FF94F96B7094F87A102846FFF730
:104470005EFF804694F87B102846FFF758FF0646FB
:1044800094F87C102846FFF752FF039094F96A9045
:10449000B9F1000F55DD3E44F6B2764276B294F89B
:1044A00070B05B4632464146B4F86400FFF75CFFEB
:1044B0008246A4F864005B4632464146B4F8660082
:1044C000FFF741FF0246A4F86600BBF1030F68D86E
:1044D000DFE80BF0023B495B1FFA89F353449BB2C0
:1044E000384480B200905146204600F02BFA40B389
:1044F000002384F8683084F8693094F876102846F0
:10450000FFF7D1FE804694F877102846FFF7CBFEE0
:104510000646002241462046FFF737FF012231467A
:104520002046FFF732FF01212846FFF7BCFE002896
:10453000EFD194F96930BB42DFDB94F86E3084F838
:104540009230039805B0BDE8F08FAAEB070189B25D
:1045500001310AF101039BB21FFA89F0104480B2C5
:104560001FFA81FABEE71FFA89F1AAEB010189B2AD
:1045700001310AF101039BB2C61BB6B2013601320A
:1045800090B2B2B21FFA81FAACE70AEB07039BB212
:104590001FFA89F1411A89B20131013290B28AB20F
:1045A000A0E753469EE770B50E46846D1734FF2989
:1045B00013D8602903D9B0F888301C4406E040299C
:1045C00004D9B0F886301C4400E01C44637803B37F
:1045D0002278B242F9D1A01C1CE0B0F88A00044451
:1045E000254600212846FFF7EDFD04440221284618
:1045F000FFF7E8FD04358642F3D801E0A3781C44B8
:104600002278637853EA022305D09E42F6D1E01C5B
:1046100000E0002070BD0020FCE710B50446A0F8C3
:104620006410A0F866201946FFF7BDFF28B10146C7
:104630002046FFF70FFF80B210BD0020FCE7F8B561
:1046400004460D4616461F4690F87030032B07D8D7
:10465000DFE803F0020D1217C36D98470644B6B2A7
:104660003B46324629462046FFF7D7FFF8BDC36DCB
:1046700098472D1AADB2F3E7C36D9847361AB6B214
:10468000EEE7C36D98470544ADB2E9E72DE9F04187
:1046900004460F4616461D4600F07AFA4FF0000811
:1046A00004E00744BFB240441FFA80F863682978E9
:1046B000204698474FF6FF72904222D001354FF6C0
:1046C000FE729042F2D00346324639462046FFF74A
:1046D000B6FF94F87030032BE5D801A252F823F00E
:1046E000A3460008F1460008F7460008FD4600080A
:1046F0000644B6B2D7E73F1ABFB2D4E7361AB6B20D
:10470000D1E74046BDE8F08110B5024C4460FFF7A8
:10471000BDFF10BD7B4B0008836D73B390F9812002
:1047200080F88E2090F9823080F88F3090F88D10CC
:1047300019B3012914D000B590F97E1090F980C00A
:1047400001EB0C0E724505DAC9B25FFA8CF2114426
:1047500080F88E10634501DD80F88FC05DF804FBA2
:1047600090F983108A4201DA80F88E1090F9842043
:10477000934202DD80F88F2070477047014BC3657C
:10478000704700BFD3410008836D8B4209D010B53C
:10479000044681657430FFF71EFD2046FFF7BCFF1D
:1047A00010BD704700B5B0F800E0B1F800C0F444A7
:1047B0001FFA8CFCE64505D99E4513D203F1FF3C58
:1047C0001FFA8CFC9E450FD294450FD9964500D315
:1047D00072469C4500D8634602809B1A0B800120DC
:1047E0005DF804FB9646EDE70020F9E70020F7E7C7
:1047F00030B583B0C48F121BC46A9DF81850009561
:1048000092B2A04703B030BD70B584B004469DF8A5
:104810002000ADF80E10ADF80C20ADF80A3094F879
:104820008C305BB3BDF80A3043B3012B03D90228A7
:1048300026D003282DD010F0010534D1B4F84C2037
:10484000BDF80C309A4219D8B4F84E20934215D2D4
:10485000B4F84A30B4F848200DF10A010DF10E0009
:10486000FFF7A0FF50B1236B9E680095BDF80A309A
:10487000BDF80C20BDF80E102046B04704B070BD46
:104880008AB2D31A9BB2ADF80E300133ADF80E30B8
:10489000D1E7BDF80C20D31A9BB2ADF80C30013330
:1048A000ADF80C30C7E7B4F84820BDF80E309A4296
:1048B000E4D8B4F84A209342E0D2B4F84E30B4F8C9
:1048C0004C200DF10A0103A8FFF76CFF0028CAD1A4
:1048D000D4E710B582B001240094FFF795FF02B031
:1048E00010BDB0F84C3093420BD8B0F84E30934224
:1048F00007D9B0F848308B4203D8B0F84A308B4221
:1049000000D8704700B583B0002300930123FFF760
:104910007BFF03B05DF804FB8A4205D2834209D8CD
:104920009A4209D901207047834207D99A4207D990
:104930000120704701207047002070470020704719
:104940000020704770B504460D461E46BDF8103075
:10495000B0F84E10B0F84C00FFF7DEFF38B1334628
:104960002A46B4F84A10B4F84800FFF7D5FF70BDE6
:1049700070B59DF8105002F0070E4FF0010C0CFAC4
:104980000EFC5FFA8CFC90F89260012E1AD900247C
:10499000012E19D022F007060268127C06FB02F2F3
:1049A00092B21144426B1144DDB90A782243D2B26B
:1049B0000A7082EA0C0201F8012B013B9BB2002B2A
:1049C000F3D170BD6446E3E74FF0000CE2E7012449
:1049D0001BE06400E4B24FEA4C0C5FFA8CFC002B45
:1049E000EFD00A782243D2B20A7082EA0C020A702F
:1049F0000EF10102013B9BB212F0070EE9D1428F8A
:104A0000114490F89220012AE1D9012AE7D04FF011
:104A1000010CE4E710B5046890F838108AB2CB00B6
:104A20008387237CDB00438790F839C01FFA8CFE14
:104A30004FEACC03C387614494F811C0614502DD9D
:104A4000ACEB0E0292B2D20092B2A0F84030A0F8C5
:104A500042301344A0F84230A38AA0F84430E38ADD
:104A6000A0F8463010BD08B5FFF7D4FF08BD10B55B
:104A700082B00446B0F856300093B0F85230B0F827
:104A80005420B0F85010FFF75DFF20B9002384F8E0
:104A90008C3002B010BD012384F88C30B4F848206B
:104AA000B4F850309A4201D2A4F84830B4F84A2001
:104AB000B4F852309A4201D9A4F84A30B4F84C20E4
:104AC000B4F854309A4201D2A4F84C30B4F84E20D5
:104AD000B4F856309A42DCD9A4F84E30D9E708B57C
:104AE0000022A0F84820B0F84420A0F84A20B0F8EE
:104AF0004020A0F84C20B0F84220A0F84E20FFF74C
:104B0000B6FF08BD10B582B09DF810400094FFF7C5
:104B10006FFE02B010BD08B50022A0F85020A0F82A
:104B200054204FF6FF72A0F85220A0F85620036BD5
:104B30005B68984708BD70B50446049E00258565EE
:104B4000C362416380F8382080F8395080F86D5096
:104B500080F8915080F88D50012380F8923080F8D1
:104B600093300663336898472046FFF7D4FF20460A
:104B7000FFF704FE84F8705070BD19B10A2904D003
:104B800088B270474FF6FF7070474FF6FF7070475E
:104B9000002380F82630704708B503685A7B2D2122
:104BA00000F0CDFA08BD10B5044601224C2100F0FA
:104BB000C6FA01224D21204600F0C1FA2046FFF737
:104BC000EBFF10BD10B5044601224C2100F0B7FAEE
:104BD0002046FFF7E1FF10BD08B501224D2100F08E
:104BE000AEFA08BD08B500224D2100F0A8FA08BDB4
:104BF00010B50446FFF7F6FF2046FFF7CDFF20462D
:104C0000FFF7E0FF2046FFF7E7FF2046FFF7C4FF6E
:104C1000002384F8253010BD08B500224C2100F097
:104C20008EFA08BD10B5044690F825307BB92046B1
:104C3000FFF7D2FF2046FFF7D5FF2046FFF7ACFF76
:104C40002046FFF7E9FF012384F8253010BDFFF768
:104C5000C3FF2046FFF7A0FF2046FFF7B3FFE6E7BC
:104C600010B5044659B1FFF7B7FF2046FFF794FF90
:104C70002046FFF7A7FF2046FFF7CEFF10BDFFF746
:104C8000B1FFF2E710B50446FFF7A6FF2046FFF795
:104C900083FF2046FFF796FF2046FFF79DFF204643
:104CA000FFF77AFF2046FFF7B7FF10BD38B504467F
:104CB0000D4601F08001FFF7D3FF05F040012046CB
:104CC000FFF7CEFF05F020012046FFF7C9FF05F0F2
:104CD00010012046FFF7C4FF05F008012046FFF74A
:104CE000BFFF05F004012046FFF7BAFF05F00201FF
:104CF0002046FFF7B5FF05F001012046FFF7B0FFA2
:104D00002046FFF7BFFF38BD10B5134604690A46B9
:104D10001721A04710BD00B583B08DF807100DF125
:104D200007020121FFF7F0FF03B05DF804FB10B5A7
:104D3000046900231A461821A04710BD10B5046964
:104D400000231A461921A04710BD70B50646144627
:104D50001D4614390C2908D8DFE801F014070710A4
:104D600018210707070707072500002070BD15F861
:104D7000011B3046FFF79AFF013CE4B2002CF6D14C
:104D80000120F3E7FFF70FFF0120EFE7FFF74AFFEE
:104D900096F824103046FFF789FF0120E6E7FFF779
:104DA00027FF0120E2E70120E0E770B504460D4649
:104DB0001646FFF7BCFF40212046FFF7ACFF334605
:104DC0002A46172120462569A8472046FFF7B6FF47
:104DD00070BD10B50A46C46800231521A04710BD58
:104DE00010B50A46C46800231621A04710BD10B5AF
:104DF0001346C4680A461721A04710BD10B5C46801
:104E000000231A461821A04710BD10B5C46800231E
:104E10001A461921A04710BD70B582B006460D464E
:104E200016E015290CD202B070BDFE29FBD1227804
:104E30008DF807202921304600F081F9023507E07E
:104E400022788DF80720F46800233046A047023509
:104E50002C4614F8011B1929E7D818290ED2162957
:104E6000DFD91729DFD123788DF807300DF107023C
:104E700001213046FFF7BBFF0235E9E7F568002363
:104E80001A463046A8472546E2E70000F8B5054631
:104E900014461E46A1F1140CBCF1050F56D8DFE8EC
:104EA0000CF03703181D454A294B1B7873B9284667
:104EB000FFF73DFF00212846FFF72DFF214628463A
:104EC000FFF729FF0120224B1870F8BDFFF736FFCE
:104ED000EDE71146FFF71FFF0120F6E71C4B1B789B
:104EE00053B1FFF72BFF07E0324618212846FFF7A2
:104EF0005CFF183CE4B21836182CF5D8324621462F
:104F00002846FFF752FF124B00221A700120DCE7FF
:104F100090F82430FF2B05D02F69334622462846CF
:104F2000B847D2E7782380F82430F5E7084B002211
:104F30001A700120C9E7064B1B7823B9044B0022E5
:104F40001A700120C1E7FFF7F9FEF7E70020BCE780
:104F500098270020F8B5064615461C460B3904294B
:104F600060D8DFE801F0035F0E21300022B92E493E
:104F7000FFF752FF012025E02C49FFF74DFF0120EC
:104F800020E042B92A49FFF747FF33689B7C86F847
:104F90002230012016E02749FFF73EFF3368DB7C13
:104FA00086F8223001200DE0FFF728FF81213046EE
:104FB000FFF70FFF29463046FFF712FF3046FFF795
:104FC00024FF0120F8BDFFF719FF6779FF00FBB24E
:104FD00096F822701F44FFB240213046FFF7F9FED9
:104FE000390941F010013046FFF7F3FE07F00F01D9
:104FF0003046FFF7F5FEA17941F0B0013046FFF7EA
:10500000EFFE2179C900226801F0F8013046FFF770
:10501000EEFE6A1E12F0FF05F3D13046FFF7F5FEF3
:105020000120CFE70020CDE740780008487800084D
:10503000F87700080078000838B505460C46FFF7F9
:1050400089FF90B9092C0AD00A2C0FD1284600F00C
:1050500018F807492846FFF7DFFE012006E005495A
:10506000284600F009F8012000E0012038BD00BF0B
:10507000087800085078000801608B7C80F82230A6
:10508000704710B5044600231A462821D0F814C0F2
:10509000E04700231A4614212046D4F80CC0E0470C
:1050A00001224B21204600F04AF823681A79292171
:1050B000204600F044F800224B21204600F03FF843
:1050C00023681A792921204600F039F801224B2162
:1050D000204600F034F823685A792921204600F050
:1050E0002EF810BD10B582B08DF805108DF8062091
:1050F0008DF80430049B009384686B4601220F21D5
:10510000A04702B010BD10B5846800231A460921DB
:10511000A04710BD10B5846800231A460A21A04795
:1051200010BD10B50A46846800230B21A04710BDAE
:1051300010B5846800231A461021A04710BD10B591
:1051400044690023A04710BD00207047002303607E
:10515000074A8260C2600261426180F8233080F8B1
:1051600026308361FF2380F8243080F82830704790
:1051700049510008F8B504460F4616461D46FFF78C
:10518000E5FFA760E6602561069B63612046FFF7A7
:10519000BAFFF8BD00B583B001904FF6FF7301224E
:1051A00001A90348FCF7E0FD019803B05DF804FB9A
:1051B0006C09002070B5184D2846FBF74DFC174CC4
:1051C0002046FBF749FC2846FBF75CFB144B1860B4
:1051D0002046FBF757FB134E30602846FBF760FD77
:1051E0002046FBF75DFD3368B3F5FA7F0ED940F634
:1051F000AB5293420CD80A4B1B68B3F5FA7F09D91E
:10520000934201D8012070BD0420FCE70220FAE798
:105210000320F8E70520F6E770080020A00800202A
:105220009C270020A027002008B5FFF7C3FF013806
:1052300004280CD8DFE800F0031B230C14001348EB
:1052400000F0FCF80023124A1360124A136008BDF4
:10525000114800F0F3F80E4B6FF013021A60F6E7F6
:105260000E4800F0EBF80A4B14221A60EFE70C48E6
:1052700000F0E4F8074B6FF013021A60E7E7094803
:1052800000F0DCF8034B14221A60E0E768780008AD
:10529000A8270020A4270020707800087C78000848
:1052A0008878000890780008014B1868704700BFA4
:1052B0001000002070B50D4E0D4D761BB61006D0B7
:1052C000002455F8043B01349847A642F9D1094E11
:1052D000094D01F01DFD761BB61006D0002455F8CF
:1052E000043B01349847A642F9D170BDA07800086C
:1052F000A0780008A8780008A0780008830730B5D7
:1053000048D0541E002A3FD00346CAB201E0013CF7
:105310003AD303F8012B9D07F9D1032C2DD9CDB237
:1053200045EA05250F2C45EA054536D9A4F11002BA
:1053300022F00F0C03F1200EE6444FEA121C03F199
:10534000100242E9045542E9025510327245F8D183
:105350000CF1010214F00C0F03EB021204F00F0C1D
:1053600013D0ACF1040323F003030433134442F8D5
:10537000045B9342FBD10CF003042CB1CAB21C4471
:1053800003F8012B9C42FBD130BD64461346002C30
:10539000F4D1F9E703461446BFE71A46A446E0E70E
:1053A00030B5054689B008460C4600F04FF801219B
:1053B0000223214A04940692AA6B04AC0590084487
:1053C00001940791AC680293039022B3636E13F0CB
:1053D000010FB4F90C309AB201D1980525D591048A
:1053E00006D4626E43F4005322F40052A381626635
:1053F000284601AA214600F015F9636E002814BF63
:105400004FF0FF350A25DA0702D4A3899B0506D59C
:10541000284609B030BD284600F05CF8D6E7A06DFC
:1054200000F0A2FA284609B030BDA06D00F09AFA4B
:10543000B4F90C309AB2D2E79C780008024B0146CE
:105440001868FFF7ADBF00BF1000002020F0030177
:1054500010F00300C0F1000051F8043B00F1040C0F
:105460004FEACC0C6FF000021CBF22FA0CF213437F
:105470004FF0010C4CEA0C2C4CEA0C4CA3EB0C0248
:1054800022EA030212EACC1204BF51F8043B0430B2
:10549000F4D0C2F1000102EA0102B2FA82F2C2F1D2
:1054A0001F0200EBD2007047024B13B1024800F01C
:1054B00005B8704700000000F955000800230146B8
:1054C0001A46184601F094B8014900F023BA00BF0B
:1054D000A16600082DE9F0478246394800F042FAFB
:1054E000DAF83840002C66D1042303223549DAF873
:1054F0000450CAF83C10DFF8D090DFF8D080344F69
:10550000344E0AF53B71CAE9B921CAF8E042214696
:10551000EB600822C5E90044C5E904446C66AC6050
:10552000AC6105F15C00FFF7E9FEC5E90759C5E983
:105530000987EE6205F1580000F010FADAF8085019
:10554000254B2146EB600822C5E90044C5E9044427
:105550006C66AC60AC6105F15C00FFF7CFFEC5E99D
:105560000759C5E90987EE6205F1580000F0F6F920
:10557000DAF80C50194B2146EB600822C5E90044CB
:10558000C5E904446C66AC60AC6105F15C00FFF7F2
:10559000B5FE05F15800C5E90759C5E90A76C5F811
:1055A000248000F0DBF901230548CAF83830BDE853
:1055B000F04700F0D9B90248BDE8F04700F0D4B98F
:1055C000B8270020C95400086564000889640008F1
:1055D000C9640008E9640008090001001200020023
:1055E000014800F0BFB900BFB4270020014800F017
:1055F000BBB900BFB427002038B5084B084D5B1B72
:105600009C1007D0043B1D44013C55F804399847D1
:10561000002CF9D1BDE8384001F080BBAC7800081F
:10562000A87800089368002B00F0B7802DE9F04FB0
:10563000B1F90C300C4619078046174683B098B272
:1056400025D523691BB310F002033D682DD04FF020
:10565000000B5E46DFF8B8A2002E00F08B805645A6
:1056600033465A4628BF53464046E169D4F824C021
:10567000E047002840F38780BB6883441B1A361A32
:10568000BB60002BE8D1002003B0BDE8F08F2146BD
:10569000404600F043FF002840F03681B4F90C305A
:1056A0003D6898B210F00203D1D110F0010976D113
:1056B0004E46002E5AD08205D4F808B040F1B5808D
:1056C000B3455A4600F2CD8010F4906F00F0CB80C5
:1056D00023682169A3EB010B636903EB430A0AEB1F
:1056E000DA7A0BF101034FEA6A0A33445345524612
:1056F00084BF9A465246430540F1EA80114640462F
:1057000000F034F9002800F0F9805A462169019030
:10571000FAF71EFDA289019B22F4906242F08002FA
:10572000A28103EB0B0023613246AAEB0B03B346C5
:10573000C4F814A0A3602060B24600264946019236
:1057400000F008FCA3682168019AA3EB0B030A444C
:10575000A3602260B868D144A0EB0A00B8600028BA
:1057600091D0B4F90C0080B2002EA4D1D5E90096F6
:1057700008359EE7D5E900B608356DE72146404675
:1057800001F086F880B3B4F90C304FF0FF3043F0ED
:105790004003A38103B0BDE8F08F002070471E4690
:1057A000AA46994618461D4656B3002832D04A46A6
:1057B00020682169B24228BF32468842636904D911
:1057C000A16803EB010B5A4574DC934265DC2A4661
:1057D0004046E169D4F824C0E047B0F1000BD2DDC7
:1057E000B9EB0B09CAD00120BB685D44A3EB0B03E6
:1057F000A6EB0B06BB60002B3FF445AF002ED4D1C7
:105800000AF1080353F8046C9A4653F8085C08330D
:10581000002EF7D032460A21284600F053FB00281C
:1058200069D00130A0EB0509C1E7206823699842DF
:105830001BD86369B34218D86FF0004CB44528BF39
:10584000B4469CFBF3FC4A4603FB0CF34046E1697B
:10585000D4F824C0E047B0F1000A94DDA6EB0A06B4
:1058600078E7B3463246206866E7B345DA4628BF94
:10587000B2464946524600F06DFBA3682268A3EB8E
:105880000A035244A3602260002BE7D12146404620
:1058900000F0FEFF0028E1D075E72946934601920B
:1058A00000F058FBA368019A9B1AA36023681A446E
:1058B000226095E729465A4600F04CFB23682146B2
:1058C0005B444046236000F0E3FF002888D05AE79D
:1058D000404600F0C7FB034600287FF422AF404655
:1058E000216901F053F80C22B4F90C30C8F80020FB
:1058F00023F0800349E7721C914659E70C22B4F962
:105900000C30C8F8002040E74FF0FF30BCE600BF85
:1059100000FCFF7F2DE9F8434FF000090746884659
:1059200000F53876D6E90154013D10D4A389013D34
:10593000012B08D9B4F90E30013304D02146384682
:10594000C04749EA00096B1C04F16804EED13668CF
:10595000002EE7D14846BDE8F88300BF704700BF7E
:10596000704700BF704700BF704700BF2DE9F04F80
:1059700001F10B05162D064683B025D8102900F23B
:10598000B88000F063FB102518224FF0020CB54FD1
:105990003A445368A2F108018B4200F0B7805A687C
:1059A000D96822F003021A449C683046E1608C609A
:1059B000516803F1080441F00101516000F04CFB13
:1059C000204603B0BDE8F08F35F0070500F1918067
:1059D000A94200F28E8000F039FBB5F5FC7FC0F0E3
:1059E00094816B0A00F08C80042B00F26A81AB0971
:1059F00003F1390C03F138044FEACC00994F3844D5
:105A000043680838984206D10CE0002980F22681CC
:105A1000DB68984206D05A6822F00302511B0F2916
:105A2000F3DDA4463C69DFF840E274457AD0626851
:105A300022F00302531B0F2B00F37681002BC7E9E2
:105A400004EE80F26781B2F5007F80F019810121B8
:105A5000D30852090B4491407A6857F833000A433F
:105A600007EBC3010839A060E1607A6047F8334072
:105A7000C46001214FEAAC039940914259D81142C8
:105A800006D12CF0030C490011420CF1040CFAD0A1
:105A900007EBCC0948466446D0F80C80404508D155
:105AA0001CE1002B80F22181D8F80C80404500F0E9
:105AB0001581D8F8042022F00302531B0F2BF0DDD0
:105AC00008EB050145F00105C8F804503046D8E957
:105AD0000264F460A66043F00104C7E904114C605D
